:100000000C9499050C94E0050C94E0050C94E00523
:100010000C94E0050C94E0050C94E0050C94E005CC
:100020000C94E0050C94E0050C94E32E0C94B52F91
:100030000C94AD250C94E0050C94E0050C94E005BF
:100040000C94E0050C94E0050C94E0050C94E0059C
:100050000C94E0050C9415260C94E0050C94E00536
:100060000C94E0050C94E0050C94E0050C94E0057C
:100070000C94E0050C94E0050C94E0050C94E0056C
:100080000C94E0050C94E0050C94E0050C94E0055C
:100090000C94E0050C94E0050C94E0050C94E0054C
:1000A0000C94E0050C94E0050C94E005A412A71252
:1000B000AF12B412B912BE12C312C812CD12D212AC
:1000C000D712DC12DE12E112E412E712EA12ED128C
:1000D000EF12F4126A1A6A1A9C1A9C1AE91A071B80
:1000E0005F1C5F1C491BDE1BEF1BEF1B4F1C5F1CC3
:1000F0005F1C581CF41CF41C061D061DFD1C061D6F
:10010000061D061DF41CF41C021D061D061D021D05
:10011000223049304131493041319530B830413198
:100120000F311E31165C1E001F002000210022002E
:10013000230024002500260027002D002E000000AB
:100140002A004A002B00000014001A0008001500C5
:1001500017001C0018000C00120013002F003200C2
:1001600030004B00390000000400160007000900B1
:100170000A000B000D000E000F00330034002800B1
:1001800000004E00E10064001D001B000600190085
:100190000500110010003600370038000000E500AF
:1001A00052004D00E000E3000000E200000000000B
:1001B0002C00000000000000E000E70001515000AA
:1001C00051004F0035003A003B003C003D003E002E
:1001D0003F00400041004200430044004500000051
:1001E0004C004700010000000100BF5CC25C010040
:1001F00001000100C55CC65C01000100AA00AB0063
:10020000A900010053000000D65CC35CC45C01007F
:1002100001000100C75CC85C01000100AC00005C8B
:1002200000000100010001000100CB5CCC5C01007A
:1002300001000100C95CCA5C010001000000AE00C1
:100240000100490001000100000001000000000061
:100250000100000000000000010001000100010099
:100260000100010044454255473A206469736162C8
:100270006C65642E0A0044454255473A20656E611C
:10028000626C65642E0A000A002530313662003A3D
:10029000200025303258000A722F6320303132336B
:1002A0003435363738394142434445460A0072678F
:1002B000626C696768742074696D65722064697323
:1002C00061626C652E0A007267626C6967687420EF
:1002D00074696D657220656E61626C65642E0A00DA
:1002E0007267626C696768742073657420687376DE
:1002F000205B4E4F454550524F4D5D3A2025752CA1
:1003000025752C25750A007267626C696768742010
:1003100073657420687376205B454550524F4D5D80
:100320003A2025752C25752C25750A007267626C9C
:1003300069676874207261696E626F772073657493
:10034000206873763A2025642C25642C25642C259E
:10035000750A007267626C6967687420646973610A
:10036000626C65205B4E4F454550524F4D5D3A20C3
:100370007267626C696768745F636F6E6669672E27
:10038000656E61626C65203D2025750A00726762AA
:100390006C696768742064697361626C65205B4591
:1003A0004550524F4D5D3A207267626C69676874C0
:1003B0005F636F6E6669672E656E61626C65203D76
:1003C0002025750A007267626C6967687420656E23
:1003D00061626C65205B4E4F454550524F4D5D3A12
:1003E000207267626C696768745F636F6E666967C5
:1003F0002E656E61626C65203D2025750A0072676E
:10040000626C6967687420656E61626C65205B452B
:100410004550524F4D5D3A207267626C696768744F
:100420005F636F6E6669672E656E61626C65203D05
:100430002025750A007267626C6967687420746FA2
:1004400067676C65205B454550524F4D5D3A2072A1
:1004500067626C696768745F636F6E6669672E6553
:100460006E61626C65203D2025750A007267626CC2
:1004700069676874206D6F6465205B4E4F45455019
:10048000524F4D5D3A2025750A007267626C6967AC
:100490006874206D6F6465205B454550524F4D5D1B
:1004A0003A2025750A007267626C696768745F6933
:1004B0006E6974207267626C696768745F636F6EDF
:1004C0006669672E6D6F6465203D20302E2057725F
:1004D0006974652064656661756C742076616C75FD
:1004E000657320746F20454550524F4D2E0A00729F
:1004F00067626C696768745F696E697420656563BB
:100500006F6E666967206973206E6F7420656E6117
:10051000626C65642E0A007267626C696768745F5A
:10052000696E6974207374617274210A0072676263
:100530006C696768745F696E69742063616C6C656F
:10054000642E0A007267626C696768745F636F6E1D
:100550006669672E7370656564203D2025640A0016
:100560007267626C696768745F636F6E6669672E35
:1005700076616C203D2025640A007267626C6967B1
:1005800068745F636F6E6669672E736174203D20C7
:1005900025640A007267626C696768745F636F6ED6
:1005A0006669672E687565203D2025640A007267BC
:1005B000686C696768745F636F6E6669672E6D6FDC
:1005C0006465203D2025640A007267626C69676873
:1005D000745F636F6E6669672E656E61626C65201D
:1005E0003D2025640A007267626C696768745F6306
:1005F0006F6E66696720454550524F4D3A0A0000BC
:10060000047F3F1F643214643214783C1E1E140AA7
:10061000052223252628292A2C2D2F303233353642
:10062000383A3B3D3E4042434547494A4C4E505183
:10063000535557595A5C5E6062646668696B6D6FAA
:1006400071737577797B7D7F81838587898A8C8EAD
:1006500090929496989A9C9E9FA1A3A5A7A8AAACB5
:10066000AEAFB1B3B4B6B8B9BBBCBEBFC1C2C3C5EF
:10067000C6C7C9CACBCCCDCED0D1D2D2D3D4D5D691
:10068000D7D7D8D9D9DADADBDBDBDCDCDCDCDCDDC4
:10069000DDDDDDDCDCDCDCDCDBDBDBDADAD9D9D8A8
:1006A000D7D7D6D5D4D3D2D2D1D0CECDCCCBCAC940
:1006B000C7C6C5C3C2C1BFBEBCBBB9B8B6B4B3B16F
:1006C000AFAEACAAA8A7A5A3A19F9E9C9A9896940A
:1006D00092908E8C8A89878583817F7D7B797775DF
:1006E00073716F6D6B6968666462605E5C5A5957BE
:1006F000555351504E4C4A4947454342403E3D3B7D
:100700003A3836353332302F2D2C2A292826252306
:1007100022FFAA7F55406261636B6C696768742031
:10072000737465703A2025750A006261636B6C69A9
:100730006768742064697361626C650A0062616352
:100740006B6C6967687420656E61626C650A006233
:1007500061636B6C6967687420746F67676C653A76
:100760002025750A006261636B6C69676874206498
:10077000656372656173653A2025750A006261637D
:100780006B6C6967687420696E6372656173653A42
:100790002025750A0000010101010101010101028A
:1007A0000202020202020202030303030303030321
:1007B00004040404040404050505050506060606EC
:1007C00006070707070708080808090909090A0AA8
:1007D0000A0B0B0B0C0C0C0D0D0D0E0E0E0F0F0F4C
:1007E00010101111111212131314141515161617D7
:1007F00017181819191A1A1B1B1C1D1D1E1E1F2045
:1008000020212222232424252626272829292A2B91
:100810002C2D2D2E2F3031323233343536373839B6
:100820003A3B3C3D3E3F40414243444546474849B0
:100830004A4C4D4E4F50515354555658595A5B5D82
:100840005E5F616264656668696B6C6D6F70727320
:100850007577787A7B7D7E8082838587888A8C8E87
:100860008F91939596989A9C9EA0A2A3A5A7A9ABB9
:10087000ADAFB1B3B5B7BABCBEC0C2C4C6C9CBCDAB
:10088000CFD1D4D6D8DBDDDFE2E4E7E9EBEEF0F35D
:10089000F5F8FAFDFF0A002530325820006B657923
:1008A000626F6172645F7265706F72743A20000AE1
:1008B0000025303258006B6579626F6172645F7336
:1008C00065745F6C65643A200064656C5F6B657984
:1008D0005F6269743A2063616E27742064656C3AC4
:1008E00020253032580A006164645F6B65795F626D
:1008F00069743A2063616E2774206164643A20252C
:100900003032580A00290A002575002F002575008D
:100910005D28002564002000256400200025640077
:1009200020002564007C0025303258006D6F7573FF
:10093000656B6579205B62746E7C78207920762007
:10094000685D287265702F61636C293A205B005BDB
:10095000735D004B6579626F6172642073746172BC
:10096000742E0A005B575D005B535D005B525D00B7
:100970005B445D005B435D00040330000000100336
:100980004B00420044003600370076003200000081
:1009900010034B0042004400460061006E007300EB
:1009A00000000403090409025B00030100A0FA0926
:1009B000040000010301010009211101000122408E
:1009C000000705810308000A090401000103000073
:1009D0000009211101000122BC000705820320004B
:1009E0000A090402000203000000092111010001AC
:1009F00022220007058303200001070503032000CE
:100A0000011201100100000008EDFE60600100010C
:100A10000203010631FF0974A1010975150026FFC3
:100A2000009520750881020976150026FF009520A3
:100A300075089102C005010902A10185020901A101
:100A40000005091901290515002501950575018184
:100A500002950175038101050109300931158125D0
:100A60007F95027508810609381581257F950175E6
:100A7000088106050C0A38021581257F9501750845
:100A80008106C0C005010980A101850319012AB7AB
:100A900000150126B700950175108100C0050C09ED
:100AA00001A101850419012AA002150126A00295C1
:100AB0000175108100C005010906A1018505050722
:100AC00019E029E715002501950875018102050740
:100AD000190029EF1500250195F07501810205081F
:100AE000190129059505750191029501750391017B
:100AF000C005010906A101050719E029E715002530
:100B00000195087501810295017508810105071994
:100B10000029FF150026FF009506750881000508CD
:100B2000190129059505750191029501750391013A
:100B3000C00011241FBECFEFDAE0DEBFCDBF04B688
:100B400003FE27C08091330390913403A0913503B5
:100B5000B09136038730904BA740B04BD1F4109240
:100B6000330310923403109235031092360314BEEF
:100B700084B7877F84BF0FB6F894A89580916000F2
:100B8000886180936000109260000FBEE0E0F8E39F
:100B9000099511E0A0E0B1E0EEEBF4E602C00590AB
:100BA0000D92A03DB107D9F723E0A0EDB1E001C05F
:100BB0001D92A333B207E1F70E94092C0C945D3219
:100BC0000C940000FF93EF93E091D001F091D101DC
:100BD000309709F00995EF91FF910895FC018591F7
:100BE000803011F0EFDFFBCF0895FF27E0E230E225
:100BF00047FF0CC0419597FF09C0EDE260957095E5
:100C000080959095611D711D811D911D27FF02C06A
:100C1000219530E350E2AA27660F771F881F991F9E
:100C2000AA1FA41710F0A41B63955A95A9F7AA3020
:100C300008F0A95FA05DAF93F3956115710581057B
:100C4000910541F7ED3211F4EF93F395F21718F493
:100C50003F93F395FBCF8F91B5DFFA95E1F70895B8
:100C6000E991F9918591803021F0853219F0AADF60
:100C7000F9CF089520E0E89455915532C1F35033EF
:100C800011F4689455915A3348F4505390F3220F5D
:100C9000022E220F220F200D250FF4CF0EF42195E6
:100CA00089919991533619F3533729F1533559F1F5
:100CB000BC0188279927E8945C3621F489919991A1
:100CC00068945591543639F446EF7EF077FF0DC0A5
:100CD0008FEF9FEF0AC055374AE039F0583540E1B1
:100CE00021F0523642E009F00895FF93EF937DDF43
:100CF000EF91FF91B7CFFF93EF93FC01819180308B
:100D0000B9F360DFFBCFFF93EF9368DFF1CFDF93A1
:100D1000CF93CDB7DEB72596A3DFCF91DF910895AE
:100D20000C94DA090C94D8090C949A060C94F006E9
:100D300081E0089581E0089508950C949C061F9326
:100D4000CF93DF9300D000D01F92CDB7DEB7498399
:100D50005A836B832091F80189819A81211112C0F5
:100D6000662349F00E944422182F682F89819A81B6
:100D70000E94ED2103C00E941822182F69817A81F8
:100D8000812F04C00E94442269817A810F900F90C4
:100D90000F900F900F90DF91CF911F910C947707D8
:100DA000FC01408151816281738184810C949F0692
:100DB000CF93DF93EC010E94D006BE01DF91CF916B
:100DC0000C949D060E9461260E94A623811102C0F8
:100DD0000E944F240E94DB140C9490060C949206FF
:100DE000089581E008950C94F106CF93C82F0E94D6
:100DF00096068C2F0E94F306CF91089508950E94C5
:100E0000E21C0E94FE062FEF84E39CE0215080400C
:100E10009040E1F700C000000C943B260F931F9315
:100E2000CF93DF93EC010E94D0068C01BE010E949B
:100E30009406882309F450C0BE01C8010E944414DE
:100E4000882309F449C0BE01C8010E949415882373
:100E500009F442C0BE01C8010E94D5158823E1F102
:100E6000BE01C8010E9400178823B1F1BE01C8016C
:100E70000E948D12882381F18A81882331F101300B
:100E80008CE5180751F00E3D8CE51807D9F00115D7
:100E90001C45D9F40E94FF061FC080919002C82F04
:100EA000C095C170C0FB80F980939002CC2329F0DB
:100EB00086E792E00E94EE050FC084E692E00E9471
:100EC000EE050BC00E944F2407C0CE01DF91CF91E9
:100ED0001F910F910C949806C0E08C2FDF91CF9159
:100EE0001F910F91089580E090E008950895E72FF5
:100EF000F0E095E0899FE00DF11D112484E0EE0FF4
:100F0000FF1F8A95E1F7E60FF11DEE0FFF1FEC5D65
:100F1000FE4F859194910895880F991FFC01E95720
:100F2000FD4F859194910895CF93DF930E947707A9
:100F30000E94AC08EC018115904508F041C0C11534
:100F400080E4D80708F0D1C0C83ED10510F5C03EF6
:100F5000D10508F0FDC0C83AD10578F4C53AD105ED
:100F600008F0A2C0C130D10509F4F2C008F4EEC007
:100F7000C430D10508F0ECC0E9C0CF3BD10508F47E
:100F80009BC0C03CD10508F4E1C0CE01805C910952
:100F90009EC0C11590E2D90758F4C11521E0D207CF
:100FA00008F0D6C0C03FD10508F4D0C0D065D0C08D
:100FB000C11580E3D80708F08EC0CE019F7087C0AE
:100FC000C11595E5D90708F043C0C11524E5D2073E
:100FD00008F0A2C0C11582E5D80708F5C11591E552
:100FE000D90708F085C0CE0174E0969587957A956B
:100FF000E1F783709C2F937021E030E002C0220F54
:10100000331F9A95E2F73C68382BCF70C695C6958A
:1010100080E2C89FE0011124C22BD32B99C09E010E
:10102000237033278C2F86958695C115D34508F0FC
:1010300064C0C1E0D0E002C0CC0FDD1F2A95E2F70A
:1010400020E2829FC0011124C82BD92BDC6880C00C
:10105000C11529E5D207A0F4C11588E5D80708F025
:1010600060C0C11596E5D90708F070C08C2F0E94AA
:1010700040098F71C82FD0E0DC2FCC27D06268C028
:10108000C1152AE5D20708F451C0CE01905681154A
:10109000904208F05BC08D2F8F710E944009DD27C0
:1010A000D0628F71D82B54C0C55AD0E0CD5ADE4FD4
:1010B000C881D0E0D0644CC0C85AD0E0CC0FDD1F4E
:1010C000CB5DDE4F0990D881C02DD46441C00E9411
:1010D0008C07EC013DC0CE019927D3FF03C0EC0182
:1010E000D86C36C0EC01D06C33C0DF70D06A30C031
:1010F000DC2FCC27C16FD06A2BC0C1E0D0E002C08A
:10110000CC0FDD1F2A95E2F720E2829FC001112457
:10111000C82BD92BDA681CC0DC2FCC27C46FD06A4F
:1011200017C0DC2FCC27C06FD06A12C08C2F8F70F5
:101130000E94400994E0D695C7959A95E1F7CF7043
:10114000D0E0DC2FCC27D069C82B02C0C0E0D0E0B3
:10115000CE01DF91CF9108958238910569F1B0F405
:101160008133910509F46DC048F48932910509F481
:1011700063C08A32910509F469C0089585339105E9
:1011800009F455C089339105B9F00895833E91055E
:1011900069F138F4803E9105B1F0823E910509F184
:1011A0000895863E9105A9F1873E9105B9F1843EE7
:1011B000910509F064C023C02091240320FD4FC095
:1011C00021FD4DC008958091240380FD44C080918D
:1011D000250380FF44C08091240384FD42C083EE38
:1011E0004DC08091240382FF38C0F5CF8091240345
:1011F00082FD33C08091250380FD31C0ECCF80910A
:10120000250381FF32C08091240384FD2AC087EE2C
:1012100035C08091240383FF26C0F5CF809124033D
:1012200083FD21C08091250381FD1FC0ECCF8091FB
:10123000240385FD1CC01DC08091240385FD19C0B9
:1012400016C08091240386FD16C017C08091240328
:1012500086FD13C010C089E311C082EE0FC080EE7E
:101260000DC080E00BC086EE09C084EE07C089E2A5
:1012700005C085E303C08AE201C081E390E00895E0
:101280009091240392FF0DC0282F2871283019F463
:10129000877F846006C0282F2471243011F48B7F4F
:1012A000886093FF0DC0282F2871283119F4877E9C
:1012B000846106C0282F2471243111F48B7E88614B
:1012C0002091250320FF0DC0382F3871383019F4D4
:1012D000877F816006C0382F3171313011F48E7FE5
:1012E000886021FF0DC0282F2871283119F4877ECE
:1012F000816106C0282F2171213111F48E7E886111
:1013000094FD877E0895E82FF0E0EE0FFF1FEE5268
:10131000FD4F808191810895CF92DF92EF92FF92ED
:101320000F931F93CF93DF9387E992E00E94EE051E
:1013300082EDE82E82E0F82EC0E0D0E092E9C92EDE
:1013400092E0D92E09E812E0DF93CF93DF92CF929B
:101350000E9487068FE892E00E94EE05F7018191D6
:1013600091917F010E948D239F938F931F930F93E1
:101370000E94870687E892E00E94EE0521968DB7CD
:101380009EB708960FB6F8949EBF0FBE8DBFC530AE
:10139000D105D1F6DF91CF911F910F91FF90EF9082
:1013A000DF90CF90089580EA8A95F1F70895089527
:1013B0000C94D7090C94D709CF93DF93A6E6B1E03C
:1013C0004BE651E061E070E08D91E82FE295EF701F
:1013D000F0E021A18F70EB0102C0CC0FDD1F8A95D8
:1013E000E2F7CE019C2F9095922391A392A1892B95
:1013F00082A34A175B0741F7A6E5B1E046E651E054
:1014000061E070E08D91E82FE295EF70F0E021A1AE
:101410008F70EB0102C0CC0FDD1F8A95E2F7CE0181
:101420009C2F9095922391A392A1892B82A34A1776
:101430005B0741F7E8ECF2E0A2EDB2E082ED92E06A
:10144000119211921D921D928E179F07C9F785E088
:101450000E94CB0ADF91CF910C94E2062F923F922B
:101460004F925F926F927F928F929F92AF92BF92B4
:10147000CF92DF92EF92FF920F931F93CF93DF9360
:1014800086E6C82E81E0D82E08EC12E092ED492EB7
:1014900092E0592E312C88248394912C5801D80144
:1014A0006D907C9011971D921C92F60181916F01B5
:1014B000C82FC295CF70D0E099A18F70740101C080
:1014C000EE0C8A95EAF7892F8E2989A38AA12E2C02
:1014D000209482218AA30E94D309E6E5F1E020E06E
:1014E00030E06191A62FA295AF70B0E090968C91FC
:1014F000D8014D915C9190E06F7002C095958795F1
:101500006A95E2F780FD08C0C401022E02C0880F70
:10151000991F0A94E2F702C080E090E0482B592B13
:10152000D8014D935C932F5F3F4F20313105C9F6B1
:1015300089A1282229A28AA1E82AEAA20E5F1F4FC8
:1015400081E0F501208131812615370509F480E01D
:10155000382A4016510609F0A1CF232D45E062ED4F
:1015600072E088EC92E00E94CC0A0E94EE06832D85
:10157000DF91CF911F910F91FF90EF90DF90CF906F
:10158000BF90AF909F908F907F906F905F904F90A3
:101590003F902F9008950895FF920F931F93CF933C
:1015A000DF93F82E092F162FD72FC42F222349F0AF
:1015B00081E08093D4010E94DF259093D301809332
:1015C000D2018091D4018823D9F08091D2019091E9
:1015D000D3010E94EB25069798F0EF2DF02FA12F55
:1015E000BD2F80E090E04C2F50E08417950734F435
:1015F000219131912D933D930196F7CF1092D40113
:10160000DF91CF911F910F91FF900895EF92FF927C
:101610000F931F93CF93DF93F62E472FE82FF0E021
:10162000711106C0EB56F84F6491762F862F72C069
:10163000272F30E0EB56F84FE4910E2F10E056E0E4
:10164000659FC0011124CFEFD0E0BE010E949E3102
:101650005BEA5603C001579F900D11248F0D911D19
:101660008F0D911D982F990F890F7E01E21AF30AB1
:10167000E09ED001E19EB00DF09EB00D1124489F78
:10168000A0011124452F55277E01E41AF50AE09E9A
:10169000A001E19E500DF09E500D11247E01E81A2C
:1016A000F108E29EC001E39E900DF29E900D112480
:1016B000892F9927C81BD90BC09FC001C19F900DCE
:1016C000D09F900D11246230710591F048F461159E
:1016D0007105E1F061307105A9F48B2F752F19C0E8
:1016E0006430710561F038F06630710579F00AC038
:1016F000892F7B2F0EC08E2F7B2FE52F0AC08E2FB8
:10170000792F02C0852F7E2FEB2F03C08B2F7E2FCA
:10171000E92F6E2FDF91CF911F910F91FF90EF90E6
:1017200008950895CF93DF93762FE901682F842FD2
:101730000E94060B798368838A83DF91CF91089595
:10174000413F08F040EF0C94920B8091DC02282F6F
:10175000269530E02115310519F48170826005C0AD
:101760002532310524F0817088648093DC028091F9
:10177000DF02813F18F080EF8093DF02089588E058
:1017800090E00C941D32CF92DF92EF92FF926B01AA
:101790007C010E94A50BB701A60188E090E0FF90B4
:1017A000EF90DF90CF900C943B32ECEDF2E083E0D1
:1017B000808311828FEF828380EF83831482608124
:1017C0007181828193810C94C30B8091900280FF80
:1017D00008C086EE95E09F938F930E9487060F9036
:1017E0000F908091900280FF0FC08091DC02817089
:1017F0001F928F9389EC95E09F938F930E948706A9
:101800000F900F900F900F908091900280FF0FC06B
:101810008091DC0286951F928F938EEA95E09F93CC
:101820008F930E9487060F900F900F900F908091DA
:10183000900280FF0EC08091DD021F928F9384E999
:1018400095E09F938F930E9487060F900F900F90C3
:101850000F908091900280FF0EC08091DE021F9257
:101860008F938AE795E09F938F930E9487060F904E
:101870000F900F900F908091900280FF0EC080918A
:10188000DF021F928F9380E695E09F938F930E94D3
:1018900087060F900F900F900F908091900280FF1D
:1018A0000EC08091E0021F928F9384E495E09F9395
:1018B0008F930E9487060F900F900F900F900895BE
:1018C0008091DC0280FF02C08695089580E0089533
:1018D0008091E002833018F48F5F8093E002609182
:1018E000DC027091DD028091DE029091DF020C94A7
:1018F000C30B8091E002882319F081508093E002AD
:101900006091DC027091DD028091DE029091DF0235
:101910000C94C30B6091040170E08091DC0280FFA5
:101920000AC08091D90123E0829FC00111248F5108
:101930009D4F0C941D158091D8019091030189173A
:1019400080F7E82FF0E09F01220F331FE20FF31F13
:10195000EF51FD4F1182108212828F5FF0CF909174
:10196000DC0290FF16C09091D801209103019217DC
:1019700070F4E92FF0E0DF01AA0FBB1FEA0FFB1F95
:10198000EF51FD4F8183608342839F5FF0CF0C94C2
:101990008A0C0895CF93DF9300D01F92CDB7DEB7A6
:1019A0009091DC0290FF0AC09E012F5F3F4F0E9482
:1019B000A00B4B8169818A810E94AF0C0F900F9020
:1019C0000F90DF91CF910895CF93DF93EC01EC81DD
:1019D000F0E0EF5EF94F4491ECEDF2E0628181813D
:1019E0000E94CA0C8C818F5F8C83DF91CF91089508
:1019F000CF93DF93EC01ECEDF2E0438162818C81C7
:101A00000E94CA0C8C818F5F8C83DF91CF910895E7
:101A10000F931F93CF93DF9300D01F92CDB7DEB704
:101A20008C018091D50181110AC09E012F5F3F4F2B
:101A300040EF6FEF0E94A00B8A818093D501F801DF
:101A40008481813051F028F0823061F44091D501D9
:101A50000AC08091D50140E007C06091D50140E007
:101A600080E003C040E080E060E00E94AF0CF8013D
:101A7000848190E0019663E070E00E94B23184833B
:101A80000F900F900F90DF91CF911F910F910895BC
:101A90004F925F926F927F928F929F92AF92BF927E
:101AA000CF92DF92EF92FF920F931F93CF93DF932A
:101AB00000D01F92CDB7DEB7F82EB62EE42E622EE0
:101AC0009091DC0290FFB4C0E92FE695AE2FB0E014
:101AD000A559BE4F8C918093E1019E7F923061F4B5
:101AE0009E012F5F3F4F8F2D0E94A00B4B8169817C
:101AF0008A810E94AF0C62C0823019F4E090DF024C
:101B00005DC0863019F4F090DD0258C08930D9F3F9
:101B1000893109F053C0E9518E2F8170782E81E010
:101B2000A72CA826E695F0E0EF5EF84FC590D4907C
:101B3000412CDD249CE2892E93E0992E60910201D4
:101B40004616D0F5042D10E00C9DC0010D9D900DA2
:101B50001C9D900D112470E00E949E315F2C71102D
:101B600002C0560E01C0561A8091900280FF11C02B
:101B7000DF92CF921F92AF921F925F921F924F926D
:101B80009F928F920E9487060FB6F894DEBF0FBE19
:101B9000CDBF8091D801080F111D9801220F331F6E
:101BA000020F131F98012F513D4F4E2D6B2D852D88
:101BB0000E94A00B4394C2CF0E948A0CF092DD02D7
:101BC000B092DE02E092DF026620E9F06091DC0272
:101BD0007091DD028091DE029091DF020E94C30BC2
:101BE0008091900280FF24C08091DF021F928F932A
:101BF0008091DE021F928F938091DD021F928F935E
:101C000087E093E00CC08091900280FF11C01F928A
:101C1000EF921F92BF921F92FF9280EE92E09F93ED
:101C20008F930E9487060FB6F894DEBF0FBECDBF1C
:101C30000F900F900F90DF91CF911F910F91FF9018
:101C4000EF90DF90CF90BF90AF909F908F907F905C
:101C50006F905F904F900895ECEDF2E09181282F06
:101C60004381628188E0890F0C94480D81E00C94D7
:101C70002C0EECEDF2E09181282F4381628188EFF8
:101C8000890F0C94480D81E00C94390EECEDF2E0D4
:101C9000628128E0620F08F46FEF282F4381818171
:101CA0000C94480D81E00C94460EECEDF2E062815C
:101CB00028E0621B08F460E0282F438181810C94A6
:101CC000480D81E00C94550EECEDF2E0438128E0E4
:101CD000420F08F44FEF282F628181810C94480D48
:101CE00081E00C94640EECEDF2E0438128E0421BAD
:101CF00008F440E0282F628181810C94480D81E036
:101D00000C94730E20E00C94480DFF920F931F93D8
:101D1000CF93DF93EC01F12C0FEF10E06091020103
:101D2000F616F0F48091D8012F2D30E0280F311DE8
:101D3000C901880F991F280F391F2F513D4F70E09F
:101D4000C8010E94B231962F8C814091DF026091D0
:101D5000DE02F99E800D11240E94A00BF394DECFC9
:101D60000E948A0C9A818C8190FF02C08F5F01C013
:101D700081508C83DF91CF911F910F91FF90089537
:101D8000AF92BF92CF92DF92EF92FF920F931F9389
:101D9000CF93DF93FC01828180FF02C00FEF01C06F
:101DA00001E010E044E1A42E80910201181708F030
:101DB00043C08091D801C12ED12CE601C80FD11D9E
:101DC000CE01880F991FC80FD91FCF51DD4F19823F
:101DD00018821A8234E0E32EF12CB12C8091D701C5
:101DE0008B0D85312CF06A2D0E949031892F05C012
:101DF00087FF03C090910201890F082E000C990BF8
:101E0000C816D90691F48091DF028E9DA0018F9DA6
:101E1000500D112455954795559547959E01609114
:101E2000DE028091DD020E94A00BB00EF1E0EF1AFD
:101E3000F108A1F61F5FB8CF0E948A0C8091D701EC
:101E4000013031F4811102C080910201815007C03C
:101E500090E001966091020170E00E94B23180939F
:101E6000D701DF91CF911F910F91FF90EF90DF90FD
:101E7000CF90BF90AF900895CF938091D80190916B
:101E80000301891770F4E82FF0E09F01220F331F40
:101E9000E20FF31FEF51FD4F1182108212828F5F0C
:101EA000F0CFC0E060910201C617C0F5EC2FF0E062
:101EB00070E0CF010E94B2312091D801820F2091B1
:101EC000D601022E000C330B90E0E217F307CCF0A2
:101ED00020910101022E000C330B2E173F078CF0CE
:101EE0009C01220F331F820F931F9C012F513D4FE6
:101EF0004091DF026091DE028091DD020E94A00B22
:101F00000BC0FC01EE0FFF1F8E0F9F1FFC01EF5156
:101F1000FD4F118210821282CF5FC4CF0E948A0CC3
:101F2000209100018091D601820F8093D60190917B
:101F30000101920F9093010119165CF4082E000C18
:101F4000990B4091020150E04150510984179507C7
:101F50001CF0219520930001CF9108950F931F93BA
:101F6000CF93DF938C01FC01848195810196817070
:101F7000992795838483C0E0D5E580910201C81735
:101F800000F58091D8012C2F30E0280F311DC901B8
:101F9000880F991F280F391F2F513D4F4C2F469501
:101FA000F80184819581840F911D81704091DF0239
:101FB0006091DE028D9F802D11240E94A00BCF5FC7
:101FC000DCCFDF91CF911F910F910C948A0C0F936E
:101FD0001F93CF93DF93EC0100E010E080910201AA
:101FE000282F30E00217130724F59091D8019801AB
:101FF000290F311DA901440F551F240F351F2F51E3
:102000003D4F869590E04C81081719071CF4442336
:1020100031F002C0411103C04091DF0201C040E035
:102020006091DE028091DD020E94A00B0F5F1F4FC6
:10203000D5CF0E948A0C8C8190E0019681709927FF
:102040008C83DF91CF911F910F9108956091DC02F5
:10205000669570E04BE050E085E091E00E94083228
:10206000892B19F481E08093E2010E94DF2590938F
:10207000DB018093DA018091900280FF08C087EC39
:1020800092E09F938F930E9487060F900F90089580
:102090001092E2018091900280FF08C08EEA92E0E7
:1020A0009F938F930E9487060F900F9008959091B1
:1020B000DC0290FF54C09170811102C0926006C092
:1020C000853210F0986402C0880F982B9093DC0240
:1020D0006623B1F06091DC027091DD028091DE0236
:1020E0009091DF020E94C30B8091900280FF1BC081
:1020F0008091DC0286951F928F938AE894E00BC052
:102100008091900280FF0FC08091DC0286951F9223
:102110008F938CE694E09F938F930E9487060F9095
:102120000F900F900F906091DC02669570E04BE08D
:1021300050E085E091E00E940832892B19F00E945E
:10214000481002C00E94261081E08093DD0140917A
:10215000DF026091DE028091DD020C94820E089510
:10216000682F9091DC02969581E0890F853208F006
:1021700081E00C94571081E00C94B010682F90917E
:10218000DC0296958FEF890F09F484E20C945710C6
:1021900081E00C94BE1061E00C9457108091DC0239
:1021A00081608093DC028091900280FF0DC01F92BD
:1021B00081E08F938EEF93E09F938F930E94870629
:1021C0000F900F900F900F908091DC0286950C94E9
:1021D000CB1060E00C9457108091E001811160C039
:1021E0008091900280FF08C08DE295E09F938F93CD
:1021F0000E9487060F900F908091900280FF08C088
:1022000087E195E09F938F930E9487060F900F9030
:102210000E94A623811110C08091900280FF08C007
:102220008FEE94E09F938F930E9487060F900F90FC
:102230000E944F240E94D50B0E94BF0B6093DC02CA
:102240007093DD028093DE029093DF026E7FC1F413
:102250008091900280FF08C086EA94E09F938F935C
:102260000E9487060F900F900E94D50B0E94BF0B13
:102270006093DC027093DD028093DE029093DF02B4
:102280000E94A50B0E94E50B1092E2018091DC02F6
:1022900080FF03C086950E94E91081E08093E001F1
:1022A00008958091DC0281608093DC02809190022D
:1022B00080FF0DC01F9281E08F9385EC93E09F9388
:1022C0008F930E9487060F900F900F900F90809130
:1022D000DC0286950C94E9108091DC028E7F80935D
:1022E000DC026091DC027091DD028091DE0290914F
:1022F000DF020E94C30B8091900280FF0FC080918B
:10230000DC0281701F928F938DE893E09F938F93EF
:102310000E9487060F900F900F900F900E94481018
:102320002FEF80E792E0215080409040E1F700C01D
:1023300000000C948A0C8091900280FF10C0809164
:10234000DC02809581701F928F9385E394E09F93C8
:102350008F930E9487060F900F900F900F9080919F
:10236000DC0280FD0C946C110C94CE108091DC0288
:102370008E7F8093DC028091900280FF0CC01F92C0
:102380001F9283E593E09F938F930E9487060F909F
:102390000F900F900F900E9448102FEF80E792E06F
:1023A000215080409040E1F700C000000C948A0C5E
:1023B0000F931F93CF93DF938091E201882309F459
:1023C0008CC08091E101E091DC02E695E81BE0938E
:1023D000DC01823049F4F0E0E35FF94FE491CE2F65
:1023E000D0E004EE1CE049C0863049F4F0E0E65F3E
:1023F000F94FE491CE2FD0E008EF1CE03EC08930C9
:1024000051F4E695F0E0E95FF94FE491CE2FD0E08A
:1024100005E81EE032C08F3051F4E695F0E0EC5F45
:10242000F94FE491CE2FD0E000EC1EE026C08531BC
:1024300049F4F0E0EF5FF94FE491CE2FD0E00CE3E8
:102440001FE01BC0883181F0833239F4EFEFF5E0F3
:10245000C591D49108E01DE010C0843251F4C4EF5E
:10246000D1E007EE1FE009C0C8EED3E00EEA1FE09E
:1024700004C0C0EDD7E001E91BE08091DD018823B5
:1024800089F01092DD010E94DF259E012095309594
:10249000820F931F9093DB018093DA011092DF018A
:1024A0001092DE018091DA019091DB010E94EB2510
:1024B0008C179D0790F0E091DA01F091DB01CE0FCF
:1024C000DF1FD093DB01C093DA018AED91E0F801C0
:1024D000DF91CF911F910F910994DF91CF911F91BF
:1024E0000F910895882311F0FA0101C0FB010994AE
:1024F000CF93DF93C82FD62F0E94600C8C1740F02B
:102500000E94600C8D1720F4DF91CF910C94BB10CA
:102510008C2FDF91CF910C94CB100F931F93CF93FF
:10252000FB01C281CC2309F463C08C010E94C52247
:102530008272F801E25CFC45E431F10508F059C013
:10254000EA5AFF4F0C94E8310E949B1106C048ECF8
:1025500050E16BEB70E10E947212C0E04AC04BEB9D
:1025600050E168EC70E1F7CF43E45EE066E37EE0C3
:10257000F2CF46E35EE063E47EE0EDCF41E65EE06D
:1025800062E57EE0E8CF42E55EE061E67EE0E3CF33
:102590004FE75EE060E77EE0DECF40E75EE06FE7BA
:1025A0007EE0D9CF49E75CE068E67CE0D4CF48E63E
:1025B0005CE069E77CE0CFCF81E017C065E082E0B6
:1025C00010C068E086E00DC06EE089E00AC064E1FA
:1025D0008FE007C067E185E104C088E106C062E2E0
:1025E00089E10E947812B9CF83E20E94CB10B5CF67
:1025F000C1E08C2FCF911F910F9108950E94A623C7
:10260000811102C00E944F240E94D72380931D0392
:10261000282F26952695269530E02430310524F084
:102620008770886180931D0380911D0380FF04C023
:1026300086958695869501C080E00C94791420914A
:102640001D03822F869586958695482F50E043304E
:10265000510554F48F5F982F990F990F990F822F7E
:102660008770892B80931D0380911D038160809367
:102670001D030E94DB238091900280FF11C0809196
:102680001D038695869586951F928F938DE797E01B
:102690009F938F930E9487060F900F900F900F903B
:1026A00080911D038695869586950C94791480916A
:1026B0001D03982F969596959695A1F0915E990F8A
:1026C000990F990F8770892B80931D03887F91E064
:1026D00009F490E080911D0390FB80F980931D0325
:1026E0000E94DB238091900280FF11C080911D0326
:1026F0008695869586951F928F9385E697E09F93A2
:102700008F930E9487060F900F900F900F908091EB
:102710001D038695869586950C94791480911D03EA
:1027200080FD1FC0816080931D03813019F489E012
:1027300080931D0380911D030E94DB2380919002F2
:1027400080FF08C08DE397E09F938F930E948706D8
:102750000F900F9080911D038695869586950C9419
:102760007914089580911D0380FF14C08E7F80939B
:102770001D030E94DB238091900280FF08C08AE243
:1027800097E09F938F930E9487060F900F9080E0B1
:102790000C9479140895CF93C0911D03C17080915A
:1027A000900280FF0CC01F92CF938FE497E09F931D
:1027B0008F930E9487060F900F900F900F90CC235D
:1027C00019F0CF910C94B213CF910C948E13909179
:1027D0001D03892F8695869586958F5F8F719770DB
:1027E000843038F4880F880F880F892B80931D035D
:1027F00002C090931D0380911D03887F91E009F42E
:1028000090E080911D0390FB80F980931D030E944E
:10281000DB238091900280FF11C080911D0386957B
:10282000869586951F928F9386E197E09F938F936D
:102830000E9487060F900F900F900F9080911D03BC
:102840008695869586950C947914843008F083E0FB
:1028500090911D039770282F220F220F220F922B89
:1028600090931D03987F21E009F420E090911D03CF
:1028700020FB90F990931D030C9479140E94251469
:1028800080911D030C94DB239C01FB018281882332
:1028900049F12D3BFCE53F07C9F040F42B3BECE54B
:1028A0003E0769F02C3B3C4561F008952F3B9CE5C9
:1028B000390791F070F0203C3C4589F0089583E0A1
:1028C00001C080E00E943E1480E008950E945713EA
:1028D000FBCF0E941F13F8CF0E94CB13F5CF0E94AD
:1028E000E713F2CF81E00895259A2D9808952D9849
:1028F0000895CF92DF92EF92FF92CF93C82F84304A
:1029000050F4811109C0809180008F7780938000FE
:102910000E94771406C0C3E0809180008068809395
:1029200080002C2F30E0AFEFBFEF0E94EE3123E0AC
:1029300030E040E050E00E94C631C9012C3764E12C
:10294000360728F469E070E00E949E3129C0DA0160
:10295000C9018A50974DAF4FBF4F6627782F892FF7
:102960009A2F25EF38E241E050E00E94C63169011C
:102970007A01CA01B9010E9474319B01AC01C701FF
:10298000B6010E947431BB27A92F982F872F00977B
:1029900021E0A207B10511F0BC0102C06FEF7FEF8B
:1029A0007093890060938800CF91FF90EF90DF9043
:1029B000CF90089508950E94741482E88093800057
:1029C00089E1809381008FEF9FEF90938700809340
:1029D00086000C94FE122EB1342F309523233EB185
:1029E000432B3FB7F894FC01680F791FE617F707F0
:1029F00089F0819198E04EB9000000C087FF2EB9A0
:102A0000880F000000C000C000C02EB900C09A9519
:102A100091F7ECCF3FBF08952DB1242B2DB99B0129
:102A2000220F331F620F731F0E94EB1487EC90E09C
:102A30000197F1F700C00000089544E00C940C15D4
:102A40000F931F93CF93DF93C62FD42F122FFC0128
:102A500082818823C9F06093E5010E94DF2590936D
:102A6000E4018093E30180E28C0F883008F057C0C6
:102A7000C77081E001C0880FCA95EAF7DF91CF9156
:102A80001F910F910C942A1A8091E501681330C0B0
:102A90008091E3019091E4010E94EB25883C91052F
:102AA00038F500E20D0FCD17B9F080E28C0F8830B9
:102AB00040F4C77081E001C0880FCA95EAF70E9410
:102AC000311A083028F581E09D2F977001C0880FDA
:102AD0009A95EAF70E942A1A812F0E94171A083045
:102AE000F0F4D77081E001C0880FDA95EAF70AC0E8
:102AF00080E28C0F883098F4C77081E001C0880FA5
:102B0000CA95EAF7DF91CF911F910F910C94311A7A
:102B1000812FDF91CF911F910F910C94171ADF91A4
:102B2000CF911F910F9108959C01CB01233F4CE55C
:102B30003407F9F078F4283DFCE53F07B9F0293D6A
:102B40004CE5340711F1273D3C4531F526E241EED5
:102B500061EE1EC0253FFCE53F0799F070F0263F6F
:102B60003C45D1F427E245EE66EE12C027E245EE81
:102B70000EC026E241EE60EE0BC027E245EE64EEA9
:102B800007C026E241EE62EE03C028E241E065EEB6
:102B90000E94201580E00895FC018281882319F0AD
:102BA0001092E501089581E00895CF93DF93EC0141
:102BB000FB018281882309F41FC1C230FCE5DF07D5
:102BC00008F41BC1C6319CE5D90738F09E012A5F85
:102BD0003C452930310508F010C10E94B92390937B
:102BE000250380932403C031ECE5DE0709F4C3C05C
:102BF00008F041C0C8308CE5D80709F49AC0F0F459
:102C0000C430ECE5DE0709F487C068F4C2308CE517
:102C1000D80709F477C0C330DC4509F0E3C08091E0
:102C20002403826076C0C630ECE5DE0709F46EC08E
:102C300008F07BC08091240388606BC0CC308CE5A9
:102C4000D80709F485C068F4CA30ECE5DE0709F45A
:102C500074C008F079C00E94E21C8091240380684F
:102C600058C0CE308CE5D80709F476C008F07FC094
:102C7000809124038BC0CB3FECE5DE0709F44FC005
:102C800018F5C3318CE5D80709F47DC078F4C1315B
:102C9000ECE5DE0709F473C0C231DC4509F0A2C0DF
:102CA0000E94E21C809124038F7733C0C5318CE5EC
:102CB000D80709F472C008F486C0CA3FDC4509F0A1
:102CC00091C0809125033EC0CF3FFCE5DF0709F4AA
:102CD0005FC058F4CD3F9CE5D90709F444C008F41F
:102CE0003FC08091250382602DC0C130FDE5DF0724
:102CF00009F475C008F45DC0C230DD4509F072C04A
:102D000080E06EC080912403816003C08091240321
:102D100080618093240366C08091240311C0809158
:102D200025038260809325035DC080912403806227
:102D3000F0CF809124038064ECCF809124038860DD
:102D40008460E7CF8160EECF809124038E7FE1CF56
:102D5000809124038D7FDDCF80912403877FD9CF9D
:102D60008091250318C0809125038D7FDBCF809152
:102D700024038F7ECECF809124038F7DCACF809194
:102D800024038F7BC6CF80912403877F8B7FC1CFA5
:102D9000809125038D7F8E7FC5CF8091240382FB98
:102DA000222720F991E0922790FB82F990FB83F98A
:102DB000B0CF80912503982F909591708E7F892BAD
:102DC00090FB81F9AFCF0E94E21C8091240387FB26
:102DD000222720F991E0922790FB87F99ACF81E092
:102DE0000E94512480912403909125030E94CA23BC
:102DF0000E94E21C80E001C081E0DF91CF91089544
:102E0000CF93DF9386319C4541F5EB010E94C522AB
:102E1000982F8A812091100130911101882379F037
:102E20009A7A81E009F480E08093E601911102C072
:102E300069E201C065E3C9010E940E250AC08091C4
:102E4000E601811102C069E201C065E3C9010E9487
:102E500019250E94132380E001C081E0DF91CF910A
:102E600008959093EC018093EB010895E091EB01BC
:102E7000F091EC01309721F00190F081E02D099460
:102E800080E00895EF92FF921F93CF93DF93FC01B0
:102E9000A091EB01B091EC01109709F442C0809130
:102EA0002401882341F08091240387FF04C080819E
:102EB000818385E08083EF011296ED91FC91139759
:102EC000CE0109958091900282FF2BC080FF04C043
:102ED0008DE998E00E94EE0518E087E9E82E88E089
:102EE000F82E8091900280FF0BC088811F928F93F3
:102EF000FF92EF920E9487060F900F900F900F9015
:102F0000115021961111EDCF8091900280FF09C0E0
:102F100085E998E0DF91CF911F91FF90EF900C949D
:102F2000EE05DF91CF911F91FF90EF900895E09112
:102F3000EB01F091EC01309739F022E0DC012C93A9
:102F40000480F581E02D099408952091E9013091E4
:102F5000EA012817390771F09093EA018093E9019B
:102F6000E091EB01F091EC01309721F00680F781C0
:102F7000E02D099408952091E7013091E801281788
:102F8000390771F09093E8018093E701E091EB013C
:102F9000F091EC01309721F00084F185E02D099447
:102FA000089585B7806885BF85B7806885BF089517
:102FB00008950C94D8170C94D9170C94D8170C9426
:102FC000D8170E94D1170E94DD170C94DB1781E0FF
:102FD00008950E94D6250E94DC090E9475260E9451
:102FE000FE120E94EC100C94DF17CF93C82F809133
:102FF000900282FF1EC080FF04C086EB98E00E9412
:10300000EE058091900280FF0CC01F92CF9381EB60
:1030100098E09F938F930E9487060F900F900F90D8
:103020000F908091900280FF04C08FEA98E00E9488
:10303000EE058C2FCF910C94F5067F928F929F9284
:10304000AF92BF92CF92DF92EF92FF920F931F93B6
:10305000CF93DF93CDB7DEB72A970FB6F894DEBFD4
:103060000FBECDBF0E942E0A0E94E717811111C02A
:103070008FEF89838A831B820E94DF258160782FEE
:103080009D838C8349815A816B818D810E94D118E7
:103090004FC04EEEA42E41E0B42E00E010E0702EA2
:1030A000802F0E9483096C01F501819091905F014E
:1030B000882699268114910431F40F5F1F4F053043
:1030C000110569F7D5CF8091900281FD0E948C098E
:1030D00080E0EE24E394F12C94012E213F21232B58
:1030E00009F18E837F82CE20DF2081E0CD2809F494
:1030F00080E088870E94DF258160782F9A87898702
:103100004E815F8168858A850E94D118000F111F4A
:10311000F801E251FE4F80819181E826F926F18283
:10312000E08206C08F5FEE0CFF1C8031A9F6C5CF90
:103130000E94D8110E94DA140E9489280E94361732
:103140009091ED018917C9F00E9436178093ED0127
:103150002A960FB6F894DEBF0FBECDBFDF91CF9198
:103160001F910F91FF90EF90DF90CF90BF90AF90A5
:103170009F908F907F900C94F5172A960FB6F89435
:10318000DEBF0FBECDBFDF91CF911F910F91FF909A
:10319000EF90DF90CF90BF90AF909F908F907F90F7
:1031A0000895CF93DF93CDB7DEB72B970FB6F89482
:1031B000DEBF0FBECDBF4F83588769877A878B8765
:1031C000DE01119686E0FD0111928A95E9F785E00E
:1031D000FE01379601900D928A95E1F749815A8157
:1031E0006B817C818D819E810E94B21F2B960FB6D0
:1031F000F894DEBF0FBECDBFDF91CF910895FC01E3
:10320000808191810E9486220895CF93882309F4BA
:10321000A4C0C82F8238C1F40E94361781FD9DC01A
:1032200069E380911001909111010E940E250E9486
:1032300013232FEF81EE94E0215080409040E1F77E
:1032400000C0000069E319C0833801F50E943617F9
:1032500080FD83C063E580911001909111010E946F
:103260000E250E9413232FEF81EE94E02150804021
:103270009040E1F700C0000063E58091100190915B
:1032800011010E941925CF910C9413238438C1F4A5
:103290000E94361782FD61C067E480911001909111
:1032A00011010E940E250E9413232FEF81EE94E05E
:1032B000215080409040E1F700C0000067E4DDCF7E
:1032C0008CEF8C0F813AD0F46C2F8091100190918B
:1032D00011010E946C24882349F06C2F8091100109
:1032E000909111010E9419250E9413236C2F809147
:1032F0001001909111010E940E25C5CF80E28C0F24
:10330000883048F4C77081E001C0880FCA95EAF799
:103310000E94C822B8CFEBE5EC0FE33040F4F0E0B8
:10332000E254FE4F808190E0CF910C94A517E8E520
:10333000EC0FE73150F4F0E0EE0FFF1FE057FE4FC7
:1033400080819181CF910C94BB17C03F30F08C2FBE
:103350000E940F27CF910C94FC27CF9108958823CA
:1033600009F464C0823879F40E94361781FF5EC088
:1033700069E380911001909111010E940E250E9435
:10338000132369E310C08338B1F40E94361780FF1D
:103390004DC063E580911001909111010E940E25AE
:1033A0000E94132363E580911001909111010E9406
:1033B00019250C941323843879F40E94361782FF60
:1033C00035C067E480911001909111010E940E2593
:1033D0000E94132367E4E7CF9CEF980F913A10F413
:1033E000682FE1CF90E2980F983050F4877091E009
:1033F00001C0990F8A95EAF7892F0E94CE22D9CF72
:103400009BE5980F933020F480E090E00C94A51792
:1034100098E5980F973120F480E090E00C94BB176A
:10342000803F20F00E9477270C94FC270895CF93CB
:10343000C82F0E940519C93349F42FEF87EE93E096
:10344000215080409040E1F700C000008C2FCF91C8
:103450000C94AF19882321F00E94C8220C941323E6
:103460000895882321F00E94CE220C9413230895FE
:10347000CF92DF92EF92FF920F931F93CF93DF9340
:103480007C01062FC72FFC01158112951F70D28178
:10349000D1110E94E5220E94BE22882379F0DD230B
:1034A00069F080E2800F883048F082E00E945D235E
:1034B0000E94BE2291E0D82ED92601C0D12CCC2E5C
:1034C000C2948FE0C8228C2D90E0FC01E659FF4F9A
:1034D0000C94E8318C2F807FCF70882311F0C29537
:1034E000C07FDD2399F0CC2309F4C4C180E2800FB2
:1034F000883010F0011104C08C2F0E94C82203C034
:103500008C2F0E94D8220E941323B4C1802F0E94C6
:10351000AF19CC2309F4D3C180E2800F883010F0BA
:10352000011104C08C2F0E94CE2203C08C2F0E9458
:10353000DE220E941323C3C18C2F807FCF70803284
:1035400011F0C295C07F002319F00130C9F022C0EC
:10355000DD2371F0112341F0113031F40E94F82283
:103560008C2B0E940023ABC10E94F8228C2B1DC023
:10357000112319F0113009F4A2C10E94092325C0BA
:10358000DD2321F0163008F09AC10EC0153008F086
:1035900096C11BC0DD2361F0112331F0F701858155
:1035A00080FF68C18F7085838C2F0E942A1A87C183
:1035B000112359F0093309F06EC1FFEF27EE83E0C4
:1035C000F15020408040E1F764C18C2F0E94311AF5
:1035D00076C18C2F86958695837019F0813061F0C5
:1035E0006EC1DD2321F0802F9C2F937002C080E0FC
:1035F00090E00E94A5176BC1DD2321F0802F9C2F46
:10360000937002C080E090E00E94BB1760C1DD2390
:10361000F9F0053F51F0063F71F0043FA9F48091A5
:103620001E0390911F0381600BC080911E03909137
:103630001F03826005C080911E0390911F03846068
:1036400090931F0380931E03802F0E940F271EC09C
:10365000053F51F0063F71F0043FA9F480911E032D
:1036600090911F038E7F0BC080911E0390911F03CA
:103670008D7F05C080911E0390911F038B7F9093D7
:103680001F0380931E03802F0E9477270E94FC2730
:103690001EC18C2F837009F045C0D11114C1402F79
:1036A000429546954770440F440F602F6F70862FE8
:1036B00090E0A0E0B0E0042E04C0880F991FAA1F7C
:1036C000BB1F0A94D2F704FF10C00FE010E020E007
:1036D00030E004C0000F111F221F331F4A95D2F79C
:1036E000009510952095309503C000E010E09801FA
:1036F000C695C695C370BC01CD01602B712B822B82
:10370000932BC23049F058F4C13019F00E940321C4
:10371000DAC00E94F120D7C00E941521D4C00E94B7
:10372000EF20D1C0DD2319F08C2F817001C0869568
:10373000882309F4C8C0402F429546954770440F2E
:10374000440F602F6F70862F90E0A0E0B0E0042E51
:1037500004C0880F991FAA1FBB1F0A94D2F704FF49
:1037600010C00FE010E020E030E004C0000F111F97
:10377000221F331F4A95D2F700951095209530955A
:1037800003C000E010E09801C695C695C370BC0167
:10379000CD01602B712B822B932BC23049F058F452
:1037A000C13019F00E94C8218EC00E94B6218BC082
:1037B0000E94DA2188C00E94292185C0CF70DD23B4
:1037C00039F08C2F0E944F21802F0E942A1A7BC033
:1037D000802F0E94311A8C2F0E94702174C0023FEA
:1037E00001F128F4003F41F0013FA1F03FC0033F49
:1037F000F9F0043F39F13AC0DD2341F0153008F00B
:103800005EC08C2F8F710E94952159C0163008F030
:1038100056C0F7CFDD2339F08C2F8F710E944F21D6
:103820004EC0DD23C9F38C2F8F710E94702147C0D9
:10383000DD2329F08C2F8F710E943A2140C00E9415
:1038400035213DC0DD2349F0CF718C2F0E944F21DF
:1038500063E08C2F0E94482332C081E00E945D23E8
:10386000123068F182E00E945D2329C0DD2331F02F
:10387000112391F2802F0E94051921C0112399F282
:10388000093349F49FEFE7EEF3E09150E040F04058
:10389000E1F700C00000802F0E94AF1910C04C2F2C
:1038A0004F70602FC7010E9473070E9460200FC0F5
:1038B0004C2F4F70602FC7010E94760708C088EF19
:1038C0008C0D843020F40E9436170E94F506DD200E
:1038D000C9F00E94BA2280FD15C0F70112820E9431
:1038E000B4220E944F21C7010E94A31C0E94B4224F
:1038F000DF91CF911F910F91FF90EF90DF90CF90CC
:103900000C947021DF91CF911F910F91FF90EF9058
:10391000DF90CF9008950F931F93CF93DF93EC0127
:10392000688179818A810E9491228C010E94EC2118
:103930000E94DD20B801CE010E94381ADF91CF919C
:103940001F910F910895CF93DF93FC0190818181A6
:1039500023813481232B31F08F3F31F481E09F3F6D
:1039600019F403C081E001C080E080FD0EC0EF01CA
:10397000CF010E940E07882341F0CE010E948B1CCC
:10398000CE01DF91CF910C94D806DF91CF910895AD
:103990000E94E5220E94F5220E9413230E94A8297A
:1039A0000E94FC2780E090E00E94A51780E090E054
:1039B0000C94BB1780911001909111010E94242555
:1039C0000C94C81C0E94D5220C94DA1CE92FE295B5
:1039D000EF704E2F50E0FA013297EE30F105B0F45F
:1039E000E658FF4F0C94E831803F91F018F4883E80
:1039F00068F40EC0843F51F40BC0883E48F0813F0C
:103A000029F406C093FB882780F9089580E0089583
:103A100081E008950E9486220E94E61C0895CF93BB
:103A2000DF9300D000D01F92CDB7DEB70F900F907C
:103A30000F900F900F90DF91CF910895CF93DF9368
:103A400000D000D000D0CDB7DEB726960FB6F894E0
:103A5000DEBF0FBECDBFDF91CF9108951F93CF93EF
:103A6000DF93C091F90116E08091FA01C81799F02F
:103A7000D0E01C9FF0011D9FF00D1124E550FE4F7A
:103A80004081518162817381848195810E941E1DD4
:103A90002196C770E9CFDF91CF911F910895409192
:103AA0002B0250912C0260912D0270912E02809178
:103AB0002F02909130020C941E1DCF938091300202
:103AC00082958F7009F05FC080912D02882309F4E0
:103AD0005AC08091F901B091FA0170912B02A09126
:103AE0002C0240912E0250912F0291E07F3F09F06D
:103AF00090E0692FC6E08B1709F445C041155105C8
:103B000021F0AF3F21F020E003C021E001C0262FCB
:103B100090E020FD35C0C89FF001C99FF00D112431
:103B2000E550FE4F21812A132BC02081271328C086
:103B30002281211125C0238134812417350710F4F7
:103B400021503109241B350B283C3105C8F4209144
:103B500030022F7020612093300226E0289FF00170
:103B6000299FF00D1124E050FE4F80818F708061FD
:103B700080838BE292E00E94A31CCF910C942E1DB7
:103B800001968770B8CFCF910895AF92BF92CF9230
:103B9000DF92EF92FF920F931F93CF93DF93CDB7F6
:103BA000DEB761970FB6F894DEBF0FBECDBF8C01B4
:103BB00085E0F801DE011D9601900D928A95E1F7EE
:103BC000D8014C9111965C9111971296EC9030911E
:103BD0002B0260912C0280912E0290912F0200976F
:103BE00031F06F3F31F421E03F3F19F403C021E091
:103BF00001C020E0B22FB170BB2E20FD60C1F801E2
:103C0000C380D480A0902D02AA2009F4EEC0209198
:103C10003002C816D90628F0D601A81BB90BCD0171
:103C200004C0809590958C0D9D1DFF24F394883CD5
:103C3000910580F0F12C207F09F09CC07C2DD98A61
:103C4000C88A6E2D89890E940F1D8BE292E00E9426
:103C5000A31C2DC1822F807F09F054C0561314C0BD
:103C6000431312C0FE2CE1100FC02F70206120936F
:103C700030020E944F1D8BE292E00E94A31C8091B3
:103C80003002F80185835CC1CD2831F05F3F31F40B
:103C900081E04F3F19F403C081E001C080E080FD66
:103CA00003C081E08E2502C080E090E0F82FF17023
:103CB000FF2E80FF1CC08091F9012091FA0136E0AF
:103CC000821709F41AC190E0389FF001399FF00D76
:103CD0001124E550FE4F6181561306C060814613E2
:103CE00003C06281E61203C001968770E9CFFE2C03
:103CF000EE2009F425C1809130028160809330026A
:103D0000F12C1EC1561309C0431307C0E11005C0B2
:103D100080913002F8018583A4C04D875E878D8530
:103D20009E850E940A1D882379F1EE2069F1209179
:103D30003002822F82958F7090E0029774F080910C
:103D40002B0290912C0298878F831986DB86CA8676
:103D50002C87CE0107960E94A31C86E0F801ABE2F7
:103D6000B2E001900D928A95E1F70E945D1D0E94DC
:103D70004F1D0DC0561771F04D875E878D859E854E
:103D80000E940A1D81111AC0C8010E94A31CFF24B1
:103D9000F394D6C04313F0CFE110EECF8091300200
:103DA000F8018583C8010E94A31C86E0EBE2F2E0E3
:103DB000DF011D928A95E9F7FA2CC2C0EE2021F3AB
:103DC00020913002822F82958F7090E002972CF222
:103DD00080912B0290912C029A8389831B82DD8231
:103DE000CC822E83CE010196B6CFC816D90628F014
:103DF000F601E81BF90BCF0104C0809590958C0D5E
:103E00009D1D883C910548F0F12C7C2DD98AC88AEB
:103E10006E2D89890E940F1D4AC0FE2CEE2009F4E8
:103E2000B3CF561333C0431331C02091300220FD6D
:103E300024C0822F82958F70482F50E04115510584
:103E4000E1F0D80115962C9315974F30510549F0A4
:103E50008F5F982F9295907F822F8F70892B159668
:103E60008C93C8010E94A31C86E0F801ABE2B2E08B
:103E700001900D928A95E1F73DC086E0F801ABE232
:103E8000B2E001900D928A95E1F75AC04D875E87A6
:103E90008D859E850E940A1D81115FCF8091300221
:103EA000816080933002C8010E94A31C49C0EBE2EC
:103EB000F2E086E0DF011D928A95E9F71BC0EE2053
:103EC00009F462CF4D875E878D859E850E940A1D0D
:103ED000F82E882309F458CF86E0F801ABE2B2E06F
:103EE00001900D928A95E1F78BE292E00E94FF1813
:103EF0000E945D1D0E944F1D23C04D875E878D85EA
:103F00009E850E948622292F22952F70223028F428
:103F10009F7039F0811105C00BC0243028F49F70C8
:103F200049F4805E883020F0C8010E94A31CBF2C99
:103F3000FB2C06C0D80115969C91907F91F7F8CF85
:103F40008F2D61960FB6F894DEBF0FBECDBFDF9107
:103F5000CF911F910F91FF90EF90DF90CF90BF9086
:103F6000AF9008951F93CF93DF93CDB7DEB72C9713
:103F70000FB6F894DEBF0FBECDBF4F835887698759
:103F80007A878B879C87CE0107960E94C51D882360
:103F9000D1F09F8188852A853B85232B31F08F3F87
:103FA00031F481E09F3F19F403C081E001C080E05B
:103FB00080FD47C04F81588569857A858B859C85B2
:103FC0000E941E1D3EC086E0FE013796DE0111965E
:103FD00001900D928A95E1F7FF81E8856A857B85DE
:103FE0006115710531F0EF3F31F481E0FF3F19F4C5
:103FF00003C081E001C080E080FD23C02091FA0170
:1040000030E0C9010196877099274091F90150E08D
:1040100084179507F1F1F983EA837D836C8396E039
:10402000929FD001939FB00D1124A550BE4FFE0169
:10403000319601900D929A95E1F78093FA010E94D2
:104040002E1D16E08091F9019091FA01891771F106
:10405000189FC001112485509E4F0E94C51D8823C2
:1040600029F1E091F9011E9FF0011124E550FE4F66
:104070004081518162817381848195810E941E1DDE
:104080008091F90190E00196877099278093F9015A
:10409000D9CF0E94E21C1092FA011092F901EBE2D2
:1040A000F2E086E0DF011D928A95E9F72C960FB6C3
:1040B000F894DEBF0FBECDBFDF91CF911F91089561
:1040C000EF92FF920F931F93CF93DF938C01892B75
:1040D00009F46CC0F12CEE24E394E8012196F80178
:1040E0008491843740F4843008F051C0813081F0ED
:1040F000823019F15BC0853709F444C0A8F19CE710
:10410000980F903708F052C08F770E94AF1941C0C6
:104110000E5F1F4FFE01849190E2980F983050F48B
:104120008770FE2D01C0FF0F8A95EAF78F2F0E943E
:10413000E82214C00E9405192DC00E5F1F4FFE011A
:10414000849190E2980F983060F48770FE2D01C042
:10415000FF0F8A95EAF78F2F0E94EE220E94132309
:1041600019C00E94AF1916C00E5F1F4FFE01C49107
:10417000CC2381F08FE99FE00197F1F700C00000A8
:10418000C150F6CF0E5F1F4FFE01F49003C00E9496
:1041900005198E018F2D882309F49FCFEFE9FFE0E9
:1041A0003197F1F700C000008150F5CFDF91CF913A
:1041B0001F910F91FF90EF900895089508950C942A
:1041C000DE200C94DF200E94E12060936702709350
:1041D00068028093690290936A020C94C81C0C9444
:1041E000E3200F931F9300916702109168022091C2
:1041F000690230916A02602B712B822B932B1F91E5
:104200000F910C94E3200F931F930091670210917C
:1042100068022091690230916A026023712382232F
:1042200093231F910F910C94E3200F931F93009100
:104230006702109168022091690230916A0260273A
:104240007127822793271F910F910C94E3200C94E0
:10425000DE200E94272160936302709364028093A2
:104260006502909366020C94C81C60E070E0CB017C
:104270000C9429210F931F9341E050E060E070E01F
:104280008A019B0104C0000F111F221F331F8A9552
:10429000D2F7C901B8011F910F910C9429210F93F6
:1042A0001F9341E050E060E070E004C0440F551FF0
:1042B000661F771F8A95D2F78091630290916402FE
:1042C000A0916502B09166028A019B01082B192B0F
:1042D0002A2B3B2BC901B8011F910F910C94292166
:1042E0000F931F9341E050E060E070E004C0440F82
:1042F000551F661F771F8A95D2F740955095609598
:1043000070958091630290916402A0916502B091D2
:1043100066028A019B01082319232A233B23C90132
:10432000B8011F910F910C9429210F931F9341E025
:1043300050E060E070E004C0440F551F661F771F17
:104340008A95D2F78091630290916402A0916502F0
:10435000B09166028A019B01082719272A273B276B
:10436000C901B8011F910F910C9429210F931F933C
:1043700000916302109164022091650230916602FF
:10438000602B712B822B932B1F910F910C94292161
:104390000F931F93009163021091640220916502B4
:1043A0003091660260237123822393231F910F9122
:1043B0000C9429210F931F930091630210916402C2
:1043C000209165023091660260277127822793272A
:1043D0001F910F910C942921089520E1929F800D47
:1043E0001124E82FE695E695E695877051E001C027
:1043F000550F8A95EAF785E0E89FF0011124EF5CFC
:10440000FD4F20E030E070E04081CB01022E02C081
:10441000969587950A94E2F7817081958427852384
:10442000842781932F5F3F4F2530310569F7089529
:1044300020E1929F800D1124682F66956695669500
:10444000982F977085E0689FB001112440E050E0FC
:1044500080E0FB01E40FF51FEF5CFD4F208130E0B1
:10446000092E02C0369527950A94E2F7217033276A
:10447000042E01C0220F0A94EAF7822B4F5F5F4F90
:104480004530510531F70895BF92CF92DF92EF92F8
:10449000FF920F931F93CF93DF938C01C090630221
:1044A000D0906402E0906502F0906602809167020D
:1044B00090916802A0916902B0916A02C82AD92A33
:1044C000EA2AFB2ACFE1D0E0D701C6010C2E04C0B6
:1044D000B695A795979587950A94D2F780FD04C065
:1044E000219790F7B12C07C0BC2EB8018C2F0E94E9
:1044F00094070197A9F38B2DDF91CF911F910F9115
:10450000FF90EF90DF90CF90BF900895CF93DF930F
:10451000EC010E944422BE010E949407DF91CF91DA
:1045200008951F93CF93DF93EB019091F8019923A6
:1045300021F0CB010E94862213C0882349F0CB01D1
:104540000E944422182F682FCE010E94ED2104C042
:10455000CB010E941822182FBE01812F0E949407C0
:10456000DF91CF911F91089580916B02859585957C
:104570008595089580916B028770089590916B02E4
:10458000977081E009F480E0089580918F0208958A
:1045900090918F02892B80938F020895809590913E
:1045A0008F02892380938F02089510928F020895BD
:1045B00090918E02892B80938E0208958095909120
:1045C0008E02892380938E02089510928E020895A0
:1045D00090918D02892B80938D0208958095909102
:1045E0008D02892380938D02089510928D02089583
:1045F00080916C02089508950C94FB220C94FC2287
:1046000090916C02981721F080936C020C94FE221A
:10461000089580916C02882329F010926C0280E04A
:104620000C94FE220895E0911001F0911101809107
:104630008F028083E0911001F091110190818091AF
:104640008E02892B8083E0911001F09111019081FD
:1046500080918D02892B808380916C02882381F068
:10466000E0911001F09111019081892B808380915C
:104670001001909111010E94562481110E9409237A
:1046800080911001909111010C9442170C94FB221F
:1046900098E0899F90011124262B20936B020E94A1
:1046A0004F2180916B028595859585950C944623C5
:1046B00010926B0280E00C94462320916B0280954F
:1046C000822380936B02982F977079F430E0482F03
:1046D000082E000C550B2417350739F08595859564
:1046E00085950E9470210C94582308959093D101D0
:1046F0008093D00108958295982F937344E0949FFE
:10470000900111248C7C86958695282B822F8575A7
:10471000880F2A7A2695822B0895CF93DF93D92F7D
:104720000E947B23C82F8D2F0E947B232C2F30E0EB
:10473000322F2227A901482BCA01DF91CF9108957A
:104740006FEF7FEF80E090E00C94473280E090E0E4
:104750000E94233221E08C3E9E4F09F020E0822F00
:10476000089582E090E00C94153283E090E00C9480
:104770001532CF9384E090E00E941532C82F81E279
:1047800090E00E9415322C2F30E0A901582BCA016D
:10479000CF910895CF93C92F682F84E090E00E94B5
:1047A00029326C2F81E290E0CF910C94293286E07F
:1047B00090E00C941532682F86E090E00C9429323A
:1047C000AB01BC018FE090E00C943B32AB01BC012B
:1047D00083E190E00C943B3260E070E0CB010C94FC
:1047E000E62360E070E0CB010E94E0230C94EC2310
:1047F0006CEE7EEF80E090E00E94473260E082E065
:1048000090E00E94293260E083E090E00E9429322B
:1048100010926702109268021092690210926A0266
:1048200060E084E090E00E94293260E081E290E064
:104830000E94293260E085E090E00E94293260E029
:1048400086E090E00E9429326FEF87E090E00E94BE
:10485000293240E050E0BA0188E090E00E943B320B
:1048600060E08DE090E00E94293240E050E0BA0123
:1048700088E190E00E943B3260E087E190E00E9496
:10488000293240E050E0BA018CE190E00E943B32D6
:1048900060E080E290E00E9429320C94F1230C94B5
:1048A000F823682F8EE090E00C942932FC013296B8
:1048B00080912401882331F08091240387FF02C076
:1048C0009EE101C096E080E0915028F021912223E2
:1048D000D9F38F5FF9CF0895662351F12091240118
:1048E0002223E9F02091240327FF19C0462F469583
:1048F000469546954E31E0F4677021E030E002C005
:10490000220F331F6A95E2F7FC01E40FF11D82814B
:1049100090E02823392381E0232B69F409C0FC01AE
:10492000329608962191621729F0E817F907D1F716
:1049300080E0089581E008959C01FC0132969FEF8C
:1049400080E04191461789F09F3F19F4411101C061
:10495000982F8F5F8630A9F79F3F39F0F901E90F53
:10496000F11D97FDFA956283089508959C012A5FD1
:104970003F4FFC014281461301C01282019682170B
:104980009307B9F70895262F2695269526952E315B
:1049900070F4FC01E20FF11D677021E030E001C00E
:1049A000220F6A95EAF78281282B2283089580914D
:1049B000900280FF0CC01F926F9387EE98E09F9348
:1049C0008F930E9487060F900F900F900F9008957D
:1049D000262F2695269526952E3178F4FC01E20F98
:1049E000F11D677021E030E001C0220F6A95EAF7FF
:1049F000209582812823228308958091900280FF50
:104A00000CC01F926F9389EC98E09F938F930E9444
:104A100087060F900F900F900F900895209124011A
:104A2000222329F02091240327FD0C94C3240C9405
:104A30009C2420912401222329F02091240327FD86
:104A40000C94E8240C94B62420912401FC013296A5
:104A5000222331F08091240387FF02C08EE101C040
:104A600086E0DF011D928A95E9F7089508950C9478
:104A700036250C943625CF930E9439250E942E0AA4
:104A80000E943725C0E08C2F0E948309892B29F4CE
:104A9000CF5FC530C1F780E001C081E0CF910895BC
:104AA0000C9436250C9450250E94522580912A039F
:104AB000843009F43CC01092910220E488E190E037
:104AC0000FB6F894A895809360000FBE2093600005
:104AD00080E00E94791480E00E94F5060E94481050
:104AE0008091920281110AC081E0809392028091AC
:104AF000DC028170809393020E94B6110E945225BD
:104B000083B7817F846083BF83B7816083BF7894DC
:104B1000889583B78E7F83BF0FB6F894A895809150
:104B20006000886180936000109260000FBE08955D
:104B30000C9436250E94E21C0E94FE120E94361739
:104B40000E94F506109292028091930281110E94B8
:104B500051110E9426100C9498251F920F920FB6A7
:104B60000F9211248F939F93AF93BF9380919102E3
:104B7000811113C08091200390912103A091220301
:104B8000B09123034196A11DB11D80932003909302
:104B90002103A0932203B0932303BF91AF919F9170
:104BA0008F910F900FBE0F901F90189582E084BDDB
:104BB00093E095BD9AEF97BD80936E0008952FB74F
:104BC000F8948091200390912103A0912203B09149
:104BD00023032FBF0895CF92DF92EF92FF920F939E
:104BE0001F932FB7F89440912003509121036091B7
:104BF0002203709123032FBF6A017B01EE24FF245F
:104C00008C0120E030E0C016D106E206F30610F475
:104C1000415051099A01281B390BC9011F910F916D
:104C2000FF90EF90DF90CF90089578941F920F92AD
:104C30000FB60F9211248F939F93AF93BF938091E0
:104C4000200390912103A0912203B09123030196A8
:104C5000A11DB11D8093200390932103A0932203F3
:104C6000B0932303BF91AF919F918F910F900FBE8F
:104C70000F901F90189581E08093E00080E2809370
:104C8000D8001092C9008FE19EE40197F1F700C0AF
:104C9000000087E090EBDC018093330390933403B2
:104CA000A0933503B09336039CE088E10FB6F894E7
:104CB000A895809360000FBE90936000FFCF0C9486
:104CC000A0230E942E0A8FE39CE90197F1F700C010
:104CD00000000E942E0A80E00E94830980FF04C029
:104CE0000E945F260C943B2608950E94A623811102
:104CF00002C00E944F240E94B123809390020E9420
:104D0000B92390932503809324030E94B523682F31
:104D100070E080E090E00C94EF2080919B0280FF97
:104D20000BC06091170185E0689FB0011124759553
:104D30006795759567952BC081FF09C06091170134
:104D400085E0689FB00111247595679520C082FFAA
:104D500007C06091170185E0689FB001112417C05A
:104D600090919A029923D1F060911601961788F7D5
:104D70002091170185E0289F90011124929FA001A6
:104D8000939F500D112470E0CA010E94B231603827
:104D9000710540F46115710519F406C065E070E015
:104DA000862F08958FE7089581E0089580919B02F2
:104DB00080FF08C06091130170E075956795759547
:104DC000679521C081FF06C06091130170E0759561
:104DD000679519C082FF04C06091130170E010C094
:104DE00090919A02992399F0609112019617A0F779
:104DF00080911301899FC001112470E00E94B2319B
:104E00006038710540F46115710519F406C061E060
:104E100070E0862F08958FE7089581E00895803F20
:104E200021F40E948D26819504C0813F29F40E94BF
:104E30008D2680939F020895823F21F40E948D2643
:104E4000819504C0833F29F40E948D2680939E02A1
:104E50000895893F19F40E94D62605C08A3F31F48F
:104E60000E94D62681958093A00208958B3F21F45D
:104E70000E94D626819504C08C3F29F40E94D62634
:104E80008093A1020895843F21F480919D02816066
:104E900017C0853F21F480919D02826011C0863F3A
:104EA00021F480919D0284600BC0873F21F48091A2
:104EB0009D02886005C0883F31F480919D02806129
:104EC00080939D0208958D3F21F480919B02816023
:104ED0000BC08E3F21F480919B02826005C08F3F02
:104EE00029F480919B02846080939B020895803F07
:104EF00039F480919F0287FF6CC010929F0269C0B5
:104F0000813F29F480919F021816BCF362C09091F2
:104F10009E02823F29F497FF5CC010929E0259C006
:104F2000833F19F41916CCF354C0893F41F48091A2
:104F3000A00218160CF04DC01092A0024AC08A3F81
:104F400029F48091A00287FF44C0F6CF8B3F39F44B
:104F50008091A10287FF3DC01092A1023AC08C3F10
:104F600029F48091A1021816BCF333C0843F21F4C8
:104F700080919D028E7F17C0853F21F480919D0214
:104F80008D7F11C0863F21F480919D028B7F0BC0E5
:104F9000873F21F480919D02877F05C0883F31F4CF
:104FA00080919D028F7E80939D0213C08D3F21F4DE
:104FB00080919B028E7F0BC08E3F21F480919B02DB
:104FC0008D7F05C08F3F29F480919B028B7F80935A
:104FD0009B0280919E0281110EC080919F028111DF
:104FE0000AC08091A002811106C08091A1028111A6
:104FF00002C010929A0208958091900283FF7EC0B1
:105000008CE299E00E94EE0580919D021F928F93A1
:1050100087E299E09F938F930E94870685E299E04B
:105020000E94EE0580919E02282F082E000C330B63
:105030003F938F9382E299E09F938F930E9487061C
:1050400080E299E00E94EE0580919F02282F082EB1
:10505000000C330B3F938F938DE199E09F938F93D7
:105060000E9487068BE199E00E94EE058091A002E4
:10507000282F082E000C330B3F938F9388E199E083
:105080009F938F930E94870686E199E00E94EE0528
:105090008091A102282F082E000C330B3F938F9391
:1050A00083E199E09F938F930E94870680E199E0C6
:1050B0000E94EE0580919A021F928F938DE099E0F5
:1050C0009F938F930E9487068BE099E00E94EE05E4
:1050D00080919B021F928F9388E099E09F938F931A
:1050E0000E94870685E099E00E94EE058DB79EB785
:1050F0004C960FB6F8949EBF0FBE8DBF8CE992E020
:105100000E9497170E94DF2590939902809398023E
:105110000895CF93DF9300D000D000D0CDB7DEB795
:1051200086E0ECE9F2E0DE01119601900D928A959D
:10513000E1F780919E02811105C080919F02882332
:1051400009F47AC080919602909197020E94EB2513
:10515000AC0190919A02992339F02091180130E026
:105160002417350758F068C0209119018AE0289F5C
:10517000900111242417350718F05EC09F3F19F0E5
:105180009F5F90939A021092A0021092A1028091C8
:105190009E02181624F40E948D2680939E02809110
:1051A0009E0287FF05C00E948D26819580939E02F6
:1051B00080919F02181624F40E948D2680939F02EE
:1051C00080919F0287FF05C00E948D268195809364
:1051D0009F0230919E023323E1F020919F0222230F
:1051E000C1F045EB3403C0011124992319F09093C9
:1051F0009E0203C081E080939E0235EB2303C00131
:105200001124992319F090939F0203C081E08093A9
:105210009F020E94FC27809198029091990290939E
:1052200097028093960286E0FE013196ACE9B2E0E7
:1052300001900D928A95E1F78091A002811105C03D
:105240008091A102882309F47AC080919402909100
:1052500095020E94EB25AC0190919A02992339F0B6
:105260002091140130E02417350758F068C02091D0
:1052700015018AE0289F900111242417350718F0A2
:105280005EC09F3F19F09F5F90939A0210929E021A
:1052900010929F028091A002181624F40E94D62634
:1052A0008093A0028091A00287FF05C00E94D626AD
:1052B00081958093A0028091A102181624F40E9487
:1052C000D6268093A1028091A10287FF05C00E948B
:1052D000D62681958093A1023091A0023323E1F07C
:1052E0002091A1022223C1F045EB3403C001112417
:1052F000992319F09093A00203C081E08093A0024B
:1053000035EB2303C0011124992319F09093A102D6
:1053100003C081E08093A1020E94FC278091980243
:1053200090919902909395028093940286E0FE01F9
:105330003196ACE9B2E001900D928A95E1F726969C
:105340000FB6F894DEBF0FBECDBFDF91CF910895A9
:10535000ECE9F2E086E0DF011D928A95E9F7109210
:105360009A0210929B0208958091C50208959FB7FA
:10537000F8941092A4029FBF90912A03943009F0F0
:1053800057C09091E9009F703091EC00232F21705D
:1053900030FD20E8922B23E02093E9002091EB00E0
:1053A00020FF43C02091EE0027FF3FC02091A202C2
:1053B000222321F02091E80025FF37C01092A2029D
:1053C00026E03091E80035FD15C030912A033430D5
:1053D00061F53091EB0035FD28C0215021F481E0CA
:1053E0008093A20222C0EFE9FFE03197F1F700C0FD
:1053F0000000E7CF8093F1008091E80085FD0AC0AE
:105400008091E80080FFFCCF8091E8008E77809348
:10541000E80006C08FB7F89421E02093A4028FBF64
:105420009F709093E90080E008959F709093E90049
:105430008FEF0895CF93DF9300D01F92CDB7DEB7E3
:1054400090912A03943019F589837B836A8382E0E3
:105450008093E9008FEF9091E800815095FD06C0A0
:1054600095ED9A95F1F700008111F5CF8091E80054
:1054700085FF0DC040E050E063E070E0CE01019692
:105480000E94D72C8091E8008E778093E8000F90DF
:105490000F900F90DF91CF910895CF93DF93EC01A0
:1054A0000E94BA2C823011F0843031F4BE0184E0C5
:1054B000DF91CF910C941A2ADF91CF910895BC010E
:1054C00083E00C941A2ACF93DF93EC010E94BA2C4C
:1054D000823011F08430F9F482E08093E9008FEF9C
:1054E0009091E800815095FD06C095ED9A95F1F7F1
:1054F00000008111F5CF8091E80085FF0CC040E0ED
:1055000050E066E070E0CE010E94D72C8091E80068
:105510008E778093E800DF91CF910895CF93DF934A
:10552000EC010E94BA2C823011F08430D9F58091C0
:105530002401882339F08091240387FF03C060E2AF
:1055400082E002C068E081E08093E9008FEF9091F3
:10555000E800815095FD06C095ED9A95F1F70000A1
:105560008111F5CF8091E80085FF1CC08091240156
:10557000811105C040E050E068E070E003C070E0D9
:1055800040E050E0CE010E94D72C8091E8008E7759
:105590008093E80080E2FE01A5EAB2E001900D925E
:1055A0008A95E1F7DF91CF91089584E799E00E9411
:1055B000EE0580912903811109C00E94682E0E9486
:1055C000C52E8091E20084608093E200089580E718
:1055D00099E00E94EE051092290308958CE699E067
:1055E0000C94EE0588E699E00C94EE0584E699E0CB
:1055F0000E94EE050C949A252091A3022F5F822F22
:1056000062E30E948431992319F02093A302089544
:105610001092A3028091A402882371F180912A0341
:10562000843041F58091E9008F702091EC00922F39
:10563000917020FD90E8892B93E09093E900909180
:10564000EB0090FF14C09091EE0097FF10C0909176
:10565000E80095FF03C01092F100F9CF9091E800A7
:1056600090FF05C09091E8009E779093E8008F70BE
:105670008093E9001092A402089542E061EC81E079
:105680000E94E12D42E261EC82E00E94E12D42E2C3
:1056900061EC83E00C94E12D80912C03833009F4BC
:1056A00060C030F4813071F0823009F499C00895FF
:1056B0008A3009F485C08B3009F46BC0893009F059
:1056C000A7C020C080912B03813A09F0A1C080912E
:1056D000E800877F8093E80080912F03909130034A
:1056E000892B21F460E285EA92E003C060E080E06B
:1056F00090E070E00E94222D8091E8008B778093EB
:10570000E800089580912B03813209F081C08091D7
:105710002F0390913003029708F07AC08091E8003F
:10572000877F8093E8008091E80082FD05C080912A
:105730002A038111F8CF6CC02091F3008091F20010
:1057400090E0922B029729F48091F1008B7F8130B9
:1057500021F48091F1008093C5028091E8008B775D
:1057600053C080912B03813A09F052C080912F03DE
:1057700090913003892B09F04BC08091E800877F1E
:105780008093E8008091E80080FFFCCF80912401A5
:1057900036C080912B038132D9F580912F039091EF
:1057A0003003892BA9F58091E800877F8093E8007A
:1057B0000E94162E80912D03809324010C94E21CEC
:1057C00080912B03813221F58091E800877F8093BF
:1057D000E8000E94162E80912E038093C602089541
:1057E00080912B03813AA1F48091E800877F809318
:1057F000E8008091E80080FFFCCF8091C602809392
:10580000F1008091E8008E778093E8000C94162ECA
:10581000089584B7877F84BF0FB6F894A8958091C8
:105820006000886180936000109260000FBE90E07D
:1058300080E80FB6F89480936100909361000FBEEA
:105840000E94E1170E94682E0E94C52E8091E200FE
:1058500084608093E20087EB99E20E94762378943B
:105860000E9459310E94E9178AE191E00E943117A4
:1058700083E599E00E94EE0580912A03853089F442
:105880008FE499E00E94EE050E9454258091280340
:10589000882391F30E943B25882371F30E94C12C39
:1058A000EBCF0E941D18E8CF0C94562C292F3327DC
:1058B00023303105C9F060F42130310581F0223008
:1058C000310509F047C08BE590E026EA39E046C093
:1058D0002132310511F12232310561F13BC082E103
:1058E00090E021E03AE03AC099278130910561F0DB
:1058F00040F08230910559F0039761F5E8E7F9E04F
:1059000008C0E2EAF9E005C0E0E9F9E002C0EEE72C
:10591000F9E0849190E09F0121C063307105D0F4DB
:10592000660F771FFB01E653FE4F2081318189E02E
:1059300090E014C06330710568F4FB01EE0FFF1FA7
:10594000EC53FE4F20813181FB01EF53FE4F8081EC
:1059500090E004C080E090E020E030E0FA01318384
:105960002083089580912A03843011F081E0089506
:1059700082E008958091C702811102C00C94B22C7C
:10598000089580E189BD82E189BD09B400FEFDCFA3
:105990008091D8008F7D8093D8008091E000826054
:1059A0008093E0008091E00081FDFCCF0895CF92CC
:1059B000DF92EF92FF920F931F93CF93DF93EC014F
:1059C0008B017A010E94352E811133C0E114F1045C
:1059D00039F0F70180819181081B190BC80FD91F7D
:1059E000C12CD12C0115110519F18091E80085FD1C
:1059F00016C08091E8008E778093E800E114F104EE
:105A000049F0F70180819181C80ED91ED182C082F0
:105A100085E00FC00E94352E882321F30AC08991AA
:105A20008093F10001501109FFEFCF1ADF0ADACF9E
:105A300080E0DF91CF911F910F91FF90EF90DF9069
:105A4000CF90089520913103309132032617370704
:105A500048F06115710539F42091E8002E77209304
:105A6000E80001C0B901FC0120E06115710579F180
:105A700080912A038823F1F18530F1F18091E800CB
:105A800083FD3CC08091E80082FD2EC08091E8003B
:105A900080FFEBCF2091F3008091F20090E0922BF9
:105AA0006115710551F08830910538F421912093EA
:105AB000F100615071090196F3CF21E0089709F0D8
:105AC00020E08091E8008E778093E800CECF21110E
:105AD000CFCF0AC080912A03882361F0853061F01E
