:100000000C9443070C948A070C948A070C948A0773
:100010000C948A070C948A070C948A070C948A071C
:100020000C948A070C948A070C948A070C94262B4C
:100030000C94D52B0C94141C0C948A070C948A07EE
:100040000C948A070C948A070C948A070C94881CD9
:100050000C948A070C948A070C948A070C948A07DC
:100060000C948A070C948A070C948A070C948A07CC
:100070000C948A078A088C088E08900892089408C5
:10008000960898089A089C089E08A008A208A40848
:10009000A608A808AA08A20AA40AAF0AA60AA80ADB
:1000A000AA0AAC0AAE0AB10AB30AB50AC00AB70A6C
:1000B000B90ABB0ABD0ABF0AC20AD811D8110A126E
:1000C0000A1248126812CC13CC13AA12CC134B1389
:1000D0004B13BC13CC13CC13C5135813581358131C
:1000E00058135813581358135813581358135813B8
:1000F00058135813581358135813691377137E1352
:1001000085138F135B145B146D146D1464146D14DC
:100110006D146D145B145B1469146D146D14691403
:10012000422C692C5B2D692C5B2DB52CD82C5B2DBA
:100130002E2D3D2D0A002530313662003A20002553
:10014000303258000A722F63203031323334353662
:100150003738394142434445460A00000000005008
:100160000000000000380000000000000005001141
:100170000000000151E6004500000051004F000062
:1001800000000000000000000000001D001B000631
:1001900000190010003600370000002800E40000BD
:1001A0000000000000E1000000E20000002F002B32
:1001B0000039003C0017001C003000400000002AFD
:1001C00000000000000000E700E500000000000063
:1001D00000330004001600070009000D000E000F98
:1001E0000000003100000000000000000000004A94
:1001F0000000004B002D0064003A003B0022002369
:10020000002E00410000004200E0004C00490000C8
:100210000000004D0000004E0027001E001F0020BF
:10022000002100240025002600460043003E000077
:10023000000000000000005200000000003400290F
:100240000035003D000A000B003F000000E30044C1
:100250000000002C00000000000000000000000072
:1002600000130014001A000800150018000C0012FA
:1002700000470000004800000000000000000001EE
:10028000000000000001000000000000000100016B
:100290000000000100010001000000010001000059
:1002A000000000000000000000000001000100014B
:1002B0000001000100010001000000005C010000DD
:1002C000000000000001000000010000000100012A
:1002D0000001000100010001000100010000000117
:1002E000000000000000000100010000000000000C
:1002F00000010001000100010001000100010001F6
:1003000000000001000000000000000000000001EB
:1003100000000001000100010001000100010001D6
:1003200000010001000000010001000100010000C7
:1003300000000001000000010001000100010001B7
:1003400000010001000100010001000100010000A6
:10035000000000000000000100000000000100019A
:100360000001000100010001000100000001000186
:10037000000000010000000000000000000000007C
:100380000001000100010001000100010001000165
:1003900000010000000100000000004445425547F4
:1003A0003A2064697361626C65642E0A00444542B8
:1003B00055473A20656E61626C65642E0A000A003A
:1003C0002530325820006B6579626F6172645F720C
:1003D00065706F72743A20000A0025303258006B45
:1003E0006579626F6172645F7365745F6C65643AAE
:1003F0002000646F6E652E0A00626F6F746D616716
:100400006963207363616E3A202E2E2E2000290A24
:10041000002575002F002575005D2800256400204B
:1004200000256400200025640020002564007C0075
:1004300025303258006D6F7573656B6579205B628E
:10044000746E7C782079207620685D287265702F24
:1004500061636C293A205B006D6B5F776865656C42
:100460005F74696D655F746F5F6D6178203D2025F5
:10047000640A006D6B5F776865656C5F6D61785FBE
:100480007370656564203D2025640A006D6B5F74A0
:10049000696D655F746F5F6D6178203D2025640A2A
:1004A000006D6B5F6D61785F7370656564203D20E2
:1004B00025640A006D6B5F696E74657276616C20ED
:1004C0003D2025640A006D6B5F64656C6179203D99
:1004D0002025640A006D6B5F776865656C5F7469E1
:1004E0006D655F746F5F6D6178203D2025640A0043
:1004F0006D6B5F776865656C5F6D61785F73706564
:100500006564203D2025640A006D6B5F74696D652C
:100510005F746F5F6D6178203D2025640A006D6B0C
:100520005F6D61785F7370656564203D2025640AA6
:10053000006D6B5F696E74657276616C203D20257D
:10054000640A006D6B5F64656C6179203D202564F1
:100550000A000A00257500363A20776865656C5FE9
:1005600074696D655F746F5F6D61783A20000A0091
:10057000257500353A20776865656C5F6D61785F39
:1005800073706565643A20000A00257500343A20CE
:1005900074696D655F746F5F6D61783A20000A0061
:1005A000257500333A206D61785F73706565643A34
:1005B00020000A00257500323A20696E7465727653
:1005C000616C286D73293A20000A00257500313AC4
:1005D0002064656C6179282A31306D73293A2000D6
:1005E0000A092D2056616C756573202D0A004D3E59
:1005F000004D25643E20003F0073657420646566ED
:1006000061756C740A00433E20007768657265204E
:1006100064656C74613A20637572736F723D256412
:100620002C20776865656C3D25640A5365652068F4
:100630007474703A2F2F656E2E77696B69706564DC
:1006400069612E6F72672F77696B692F4D6F7573B4
:10065000655F6B6579730A000A092D204D6F75730C
:10066000656B6579202D0A4553432F713A097175E1
:1006700069740A313A0964656C6179282A31306DF0
:1006800073290A323A09696E74657276616C286D55
:1006900073290A333A096D61785F73706565640A7E
:1006A000343A0974696D655F746F5F6D61780A35FE
:1006B0003A09776865656C5F6D61785F7370656531
:1006C000640A363A09776865656C5F74696D655FC1
:1006D000746F5F6D61780A0A703A097072696E749E
:1006E0002076616C7565730A643A097365742064D9
:1006F000656661756C74730A75703A092B310A640A
:100700006F776E3A092D310A706775703A092B318F
:10071000300A7067646F776E3A092D31300A0A73B8
:1007200070656564203D2064656C7461202A206DCD
:1007300061785F7370656564202A20287265706532
:100740006174202F2074696D655F746F5F6D6178CF
:10075000290A003F004D3E2000433E20004C256406
:100760000A0074696D65725F7265616433322829AD
:100770003A202530346C580A006B6579626F6172DB
:10078000645F69646C653A2025580A006B6579627C
:100790006F6172645F70726F746F636F6C3A202563
:1007A000580A00686F73745F6B6579626F61726479
:1007B0005F6C65647328293A2025580A000A092DC0
:1007C00020537461747573202D0A004743433A2007
:1007D000342E392E32204156522D4C4942433A2074
:1007E000312E382E3073766E204156525F4152437F
:1007F000483A2061767233350A004F5054494F4EC3
:10080000533A204C55464120424F4F544D414749A1
:1008100043204D4F5553454B45592045585452415F
:100820004B455920434F4E534F4C4520434F4D4D60
:10083000414E4420343039360A004255494C443A3E
:100840002022302E362E3339372D31332D67363670
:10085000316139312D646972747922202832303A3D
:1008600030313A3133204A756E2020342032303115
:1008700039290A005649443A2030784645454428EB
:1008800046696C636F29205049443A2030783630ED
:100890003530284D616A6573746F75636820544BF9
:1008A0004C205C77205468652050656761737573D0
:1008B00020486F6F6629205645523A2030783031F3
:1008C00030340A00444553433A20514D4B20666969
:1008D000726D7761726520666F72204D616A657313
:1008E000746F75636820544B4C0A000A092D20561A
:1008F000657273696F6E202D0A000A092D20436FFF
:100900006E736F6C65202D0A4553432F713A097140
:100910007569740A6D3A096D6F7573656B65790A4F
:10092000000A092D204D61676963202D0A443A09A8
:100930004465627567204D65737361676520546F08
:1009400067676C650A583A094D617472697820448A
:1009500065627567204D6F646520546F67676C65CD
:10096000202D2053686F77206B65797072657373E3
:10097000657320696E206D61747269782067726991
:10098000640A4B3A094B6579626F61726420446571
:1009900062756720546F67676C65202D2053686F00
:1009A00077206B65797072657373207265706F72F2
:1009B000740A4D3A094465627567204D6F75736519
:1009C00020546F67676C650A563A095665727369F9
:1009D0006F6E0A533A095374617475730A433A0986
:1009E000416374697661746520436F6E736F6C65E3
:1009F000204D6F64650A46312D4631303A095377F0
:100A00006974636820746F204C6179657220302DA1
:100A1000392028463130203D204C30290A302D39EC
:100A20003A0953776974636820746F204C61796563
:100A30007220302D390A47524156453A0953776999
:100A400074636820746F204C6179657220302028AF
:100A5000616C7465726E617465290A423A094A755F
:100A60006D7020746F20426F6F746C6F616465727B
:100A70000A4553433A094A756D7020746F20426FDE
:100A80006F746C6F616465722028616C7465726E3E
:100A9000617465290A453A095072696E74204545AA
:100AA00050524F4D2053657474696E67730A4253F8
:100AB000504143453A09436C6561722045455052A7
:100AC0004F4D0A000A002575002E6E6B726F3A209A
:100AD000000A002575002E737761705F6261636B99
:100AE000736C6173685F6261636B73706163653AB5
:100AF00020000A002575002E737761705F677261B0
:100B000076655F6573633A20000A002575002E6ED6
:100B10006F5F6775693A20000A002575002E7377AC
:100B200061705F72616C745F726775693A20000A68
:100B3000002575002E737761705F6C616C745F6C5B
:100B40006775693A20000A002575002E636170738D
:100B50006C6F636B5F746F5F636F6E74726F6C3A10
:100B600020000A002575002E737761705F636F6E39
:100B700074726F6C5F636170736C6F636B3A2000AB
:100B80000A0025303258006B65796D61705F636FC4
:100B90006E6669672E7261773A20000A002575003B
:100BA0002E6D6F7573653A20000A002575002E6B57
:100BB0006579626F6172643A20000A002575002E23
:100BC0006D61747269783A20000A002575002E65FF
:100BD0006E61626C653A20000A002530325800646C
:100BE000656275675F636F6E6669672E7261773ADB
:100BF00020000A0025750064656661756C745F6C81
:100C0000617965723A20003F000A6D6F7573653A2D
:100C1000206F66660A000A6D6F7573653A206F6E05
:100C20000A000A6B6579626F6172643A206F6666CA
:100C30000A000A6B6579626F6172643A206F6E0A0E
:100C4000000A6D61747269783A206F66660A000A5C
:100C50006D61747269783A206F6E0A000A64656289
:100C600075673A206F66660A000A64656275673ABE
:100C7000206F6E0A000A0A4A756D70696E672074EB
:100C80006F20626F6F746C6F616465722E2E2E2000
:100C900000433E2000436C656172696E67204545E4
:100CA00050524F4D0A006565636F6E6669673A0A78
:100CB000005B735D004B6579626F617264207374D1
:100CC0006172742E0A005B575D005B535D005B52DE
:100CD0005D0004033000000046034D0061006A001F
:100CE0006500730074006F007500630068002000E9
:100CF00054004B004C0020005C00770020005400A2
:100D00006800650020005000650067006100730006
:100D100075007300200048006F006F00660000003F
:100D20000C03460069006C0063006F0000000403C0
:100D3000090409025B00030100A0FA090400000194
:100D40000301010009211101000122400007058172
:100D50000308000A09040100010300000009211131
:100D60000100012285000705820320000A09040210
:100D700000020300000009211101000122220007E6
:100D80000583032000010705030320000112011061
:100D90000100000008EDFE5060040101020301069D
:100DA00031FF0974A1010975150026FF0095207512
:100DB0000881020976150026FF009520750891022A
:100DC000C005010902A10185020901A10005091957
:100DD000012905150025019505750181029501750B
:100DE0000381010501093009311581257F950275BF
:100DF00008810609381581257F950175088106054A
:100E00000C0A38021581257F950175088106C0C03E
:100E100005010980A10185031601002603001A813E
:100E2000002A8300751095018100C0050C0901A1FD
:100E3000018504160100269C021A01002A9C0275F5
:100E40001095018100C005010906A101050719E0FF
:100E500029E715002501950875018102950175089E
:100E60008101050819012905950575019102950172
:100E7000750391010507190029FF150026FF00954C
:100E80000675088100C011241FBECFEFD4E0DEBF7D
:100E9000CDBF04B603FE27C0809174029091750205
:100EA000A0917602B09177028730904BA740B04B6B
:100EB000D1F4109274021092750210927602109280
:100EC000770214BE84B7877F84BF0FB6F894A895C5
:100ED00080916000886180936000109260000FBE76
:100EE000E0E0F8E3099511E0A0E0B1E0ECE4FCE516
:100EF00002C005900D92AE32B107D9F722E0AEE202
:100F0000B1E001C01D92A437B207E1F70E945F284B
:100F10000C94242E0C940000FF93EF93E0912E018B
:100F2000F0912F01309709F00995EF91FF91089505
:100F3000FC018591803011F0EFDFFBCF0895FF2792
:100F4000E0E230E247FF0CC0419597FF09C0EDE2B7
:100F50006095709580959095611D711D811D911D05
:100F600027FF02C0219530E350E2AA27660F771FC2
:100F7000881F991FAA1FA41710F0A41B63955A95E8
:100F8000A9F7AA3008F0A95FA05DAF93F3956115AA
:100F900071058105910541F7ED3211F4EF93F39559
:100FA000F21718F43F93F395FBCF8F91B5DFFA95C5
:100FB000E1F70895E991F9918591803021F085322A
:100FC00019F0AADFF9CF089520E0E8945591553241
:100FD000C1F3503311F4689455915A3348F4505387
:100FE00090F3220F022E220F220F200D250FF4CF97
:100FF0000EF4219589919991533619F3533729F1BC
:10100000533559F1BC0188279927E8945C3621F4BF
:101010008991999168945591543639F446EF7EF050
:1010200077FF0DC08FEF9FEF0AC055374AE039F0C8
:10103000583540E121F0523642E009F00895FF931F
:10104000EF937DDFEF91FF91B7CFFF93EF93FC011B
:1010500081918030B9F360DFFBCFFF93EF9368DFBE
:10106000F1CFDF93CF93CDB7DEB72596A3DFCF9136
:10107000DF910895089508958AB18B678AB93F98E2
:1010800084B1807884B9479A85B18F6785B9E0E5E6
:10109000F1E0A0E3B1E011921192119211921D9230
:1010A0001D921D921D9281E0E037F807A1F70C9484
:1010B0003A0A2F923F924F925F926F927F928F9255
:1010C0009F92AF92BF92CF92DF92EF92FF920F93D7
:1010D0001F93CF93DF93CDB7DEB728970FB6F89461
:1010E000DEBF0FBECDBF20E030E0412C512C3201DD
:1010F0004394822F90E0FC013197E131F10530F407
:10110000E65CFF4F8BB184780C94C82D8BB184784A
:10111000836321C080671FC083611DC088661BC0B8
:101120008B6019C08B6317C0886715C0816613C0B8
:10113000896611C081670FC08A660DC082660BC0C8
:10114000896709C0806607C0836405C08B6103C0DE
:10115000836201C08B628BB960EA6A95F1F783B153
:1011600082958695877071E0872780FB222420F87E
:10117000312C86B1082E000C990B8095909588270C
:10118000990F881F9927880F991F822993291C99E5
:1011900003C044E050E002C040E050E0482B592B2F
:1011A0001E9903C0A8E0B0E002C0A0E0B0E04A2B66
:1011B0005B2B199903C0E0E1F0E002C0E0E0F0E051
:1011C0004E2B5F2B189903C060E270E002C060E014
:1011D00070E08A01062B172B1B9903C040E450E0F6
:1011E00002C040E050E0402B512B1A9903C000E8A8
:1011F00010E002C000E010E0042B152B5301420167
:10120000022E04C0880C991CAA1CBB1C0A94D2F79D
:10121000809100018F83A0E3B1E0BE83AD83FD0127
:1012200040E050E0C080D180E280F380C701B60189
:10123000682179218A219B2169837A838B839C830E
:1012400071E0788789819A81AB81BC81892B8A2B57
:101250008B2B09F4188661E070E0042E02C0660F43
:10126000771F0A94E2F76023712391E0672B09F45A
:1012700090E0A885A91751F0C824D924EA24FB24BA
:10128000C082D182E282F382B5E0BF834F5F5F4FBD
:1012900034964830510531F66F81609300012F5F1D
:1012A0003F4F2231310509F024CF6623F1F0862F1C
:1012B000815080930001882339F08FE99FE00197E6
:1012C000F1F700C0000011C0E0E5F1E0AD81BE81A2
:1012D0004D915D916D917D91BE83AD83419351930D
:1012E00061937193A055B14089F70E94420A81E051
:1012F00028960FB6F894DEBF0FBECDBFDF91CF9119
:101300001F910F91FF90EF90DF90CF90BF90AF9023
:101310009F908F907F906F905F904F903F902F9015
:101320000895E82FF0E0EE0FFF1FEE0FFF1FE05BC8
:10133000FE4F60817181828193810895CF92DF9207
:10134000EF92FF920F931F93CF93DF9384E491E08A
:101350000E94980780E5E82E81E0F82EC0E0D0E0FA
:101360009FE3C92E91E0D92E06E311E0DF93CF93DE
:10137000DF92CF920E9431088CE391E00E9498079F
:10138000F70181919191A191B1917F010E94E01AA1
:101390009F938F931F930F930E94310884E391E0F2
:1013A0000E94980721968DB79EB708960FB6F894BD
:1013B0009EBF0FBE8DBFC830D105C1F6DF91CF9162
:1013C0001F910F91FF90EF90DF90CF90089581E0F3
:1013D00008950C943A080C943B080C94E7090C947B
:1013E000F10981FF02C03E9A01C03E98469882FFF3
:1013F00002C03D9A01C03D984598089581E0089546
:101400000C94FE091F93CF93DF9300D000D01F925E
:10141000CDB7DEB749835A8320919B0189819A8198
:10142000211112C0662349F00E949919182F682FC4
:1014300089819A810E94381903C00E946A19182F65
:1014400069817A81812F04C00E94991969817A810A
:101450000F900F900F900F900F90DF91CF911F91F1
:101460000C94500BFC014081518162817381848115
:101470000C94020A0E94FA1A811102C00E947E1B7B
:101480000C94E9090C94EB090C94EF0908950E945F
:101490004B140E94460A2FEF84E39CE021508040C9
:1014A0009040E1F700C000000C94AE1C0F931F9316
:1014B000CF93DF938C010E94320AEC01B8010E94A5
:1014C000000A8823D9F0B801CE010E943F0E88237C
:1014D000A9F0C531FCE5DF0708F088C0C2308CE513
:1014E000D80770F4C115ECE5DE0709F05BC0F80120
:1014F000C281CC2309F4CAC00E94470AC0E0C6C01A
:10150000F8018281882309F450C00E94FA1A8111DF
:1015100002C00E947E1B0E94171B90E090936602FF
:1015200080936502FE01E350FC45E231F10530F4A1
:10153000E55BFF4F809165020C94C82D8091650298
:10154000816027C0826025C0846023C0806121C083
:1015500080621FC080641DC080681BC0846088607A
:1015600018C08E7F16C08D7F14C08B7F12C08F7EF7
:1015700010C08F7D0EC08F7B0CC08F770AC08B7F11
:10158000877F07C087FB222720F991E0922790FBF5
:1015900087F980936502809165020E941B1B0E945F
:1015A0004B14ACCFC130DC4539F0C801DF91CF918D
:1015B0001F910F910C94ED09F801C281CC2309F41D
:1015C00065C080914302C82FC095C170C0FB80F9EF
:1015D00080934302CC2329F08DEA93E00E94980780
:1015E0008DCF8BE993E00E94980750C0CC3D8CE5ED
:1015F000D80739F4F801C281CC2309F447C080E050
:101600000DC0CD3DECE5DE0760F0CD3D8CE5D807A3
:1016100091F5F801C281CC23C9F182E00E9407292B
:101620006DCFC631DC4509F60E94191A282FF80142
:1016300082814091010150910201882379F02A7A38
:1016400091E009F490E090937001911102C069E279
:1016500001C065E3CA010E94B21B0AC080917001FB
:10166000811102C069E201C065E3CA010E94B41B96
:101670000E94651A43CFCE3DDC4509F096CFF801B4
:10168000C281CC2319F00E947E1B38CF8C2FDF91B2
:10169000CF911F910F91089580E090E008950895F3
:1016A0009B0190E060E970E00E94972DFC01832F80
:1016B00090E062E170E00E94972D8E0F9F1FFC0169
:1016C000E20FF11DEE0FFF1FE55AFE4F8591949139
:1016D0000895880F991FFC01E254FC4F8591949165
:1016E0000895CF93DF930E94500B0E94320DEC01BE
:1016F000811520E5920708F03FC0811530E493077B
:1017000008F02AC1883E910500F5803E910508F059
:10171000A5C1883A910570F4853A910508F0A4C0F6
:101720008130910509F49AC108F44BC1049708F07F
:1017300095C147C18F3B910508F4A1C0803C91053C
:1017400008F43FC1805C9109F9C0C11580E2D80757
:1017500058F4C11521E0D20708F080C1C03FD1057F
:1017600008F42FC1D0657AC1C11530E3D30708F062
:10177000E9C0CE019F70E2C0C11585E5D80708F029
:1017800047C0C11524E5D20708F0FFC0C11532E5F6
:10179000D30718F5C11581E5D80708F0E0C02C2F54
:1017A000237081E090E002C0880F991F2A95E2F72C
:1017B0009C689E01F4E036952795FA95E1F7237031
:1017C000922BCF70C695C695D0E0A5E0CC0FDD1F5B
:1017D000AA95E1F7C82BD92B41C12C2F2695269528
:1017E000CE0183709927C115D34508F0BDC030E004
:1017F00075E0220F331F7A95E1F7C1E0D0E002C017
:10180000CC0FDD1F8A95E2F7C22BD32BDC6826C1F3
:10181000C11589E5D807A0F4C11528E5D20708F05D
:10182000B9C0C11536E5D30708F0CBC08C2F0E9494
:10183000AF0D8F71C82FD0E0DC2FCC27D0620EC146
:10184000C1158AE5D80708F4AAC0CE0190568115C3
:10185000904208F0B6C08D2F8F710E94AF0DDD272A
:10186000D0628F71D82BFAC0853A910509F4ACC0CB
:10187000863A910509F0ABC0C2E8D0E4EFC0883ADF
:10188000910509F4A7C0893A910509F4A6C08A3ADE
:10189000910509F4A5C08B3A910509F4A4C08C3ACE
:1018A000910509F4A3C08B3B910509F4A2C08C3BC0
:1018B000910509F4A1C08D3A910509F4A0C0803BBF
:1018C000910509F49FC08E3A910509F49EC08F3AA4
:1018D000910509F49DC0813B910509F49CC0823BB0
:1018E000910509F49BC0833B910509F49AC0843BA0
:1018F000910509F499C0853B910509F498C0863B90
:10190000910509F497C0873B910509F496C0883B7F
:10191000910509F495C0893B910509F494C08D3B6C
:10192000910509F493C08E3B910509F492C08A3B5E
:10193000910509F491C0C0E0D4E490C00E94690B05
:10194000EC018CC0CE019927D3FF03C0EC01D86C09
:1019500085C0EC01D06C82C0DF70D06A7FC0DC2F04
:10196000CC27C16FD06A7AC030E065E0220F331F08
:101970006A95E1F7C1E0D0E002C0CC0FDD1F8A9587
:10198000E2F7C22BD32BDA6869C0DC2FCC27C46FF7
:10199000D06A64C0DC2FCC27C06FD06A5FC08C2FA8
:1019A0008F700E94AF0D94E0D695C7959A95E1F798
:1019B000CF70D0E0DC2FCC27D06A8F70806EC82B20
:1019C0004DC0C0E0D0E04AC0C1E8D0E447C0C3E8A1
:1019D000D0E444C0C2EED4E441C0C9EED4E43EC079
:1019E000CAEED4E43BC0C5EBD4E438C0C6EBD4E4C3
:1019F00035C0C3EBD4E432C0C4EBD4E42FC0C7EB92
:101A0000D4E42CC0CCECD4E429C0CDECD4E426C082
:101A1000C3E8D5E423C0CAE8D5E420C0C2E9D5E4D0
:101A20001DC0C4E9D5E41AC0C1E2D6E417C0C3E2C0
:101A3000D6E414C0C4E2D6E411C0C5E2D6E40EC0B8
:101A4000C6E2D6E40BC0C7E2D6E408C0CFE6D4E4D1
:101A500005C0C0E7D4E402C0CAE2D6E4CE01DF91FB
:101A6000CF9108958238910549F1B0F48133910501
:101A700009F458C048F48932910509F44EC08A32FD
:101A8000910509F454C008958533910509F440C0C7
:101A90008933910599F00895833E910529F138F431
:101AA000803E910591F0823E9105A1F00895863E19
:101AB0009105F9F0873E910531F108952091650275
:101AC00020FD3AC021FD38C008958091650280FD57
:101AD00035C032C08091650282FF32C080916502BC
:101AE00084FD30C083EE39C08091650282FD28C03C
:101AF000F5CF8091650283FF27C08091650284FD48
:101B000021C087EE2AC08091650283FD1DC0F5CFFC
:101B10008091650285FD1AC01BC08091650285FD1C
:101B200017C014C08091650286FD14C015C0809155
:101B3000650286FD11C00EC080EE0FC089E30DC0A6
:101B400082EE0BC080E009C086EE07C089E205C0C6
:101B500085E303C08AE201C081E390E0089590919B
:101B6000650292FF0DC0282F2871283019F4877F55
:101B7000846006C0282F2471243011F48B7F886084
:101B800093FF0DC0282F2871283119F4877E8461B6
:101B900006C0282F2471243111F48B7E886194FDB6
:101BA000877E08950F931F93CF93DF93C62FD42F73
:101BB000022FFC0182818823C9F0609373010E9487
:101BC000461C909372018093710180E28C0F8830E3
:101BD00008F050C0C77081E001C0880FCA95EAF7CD
:101BE000DF91CF911F910F910C949411109173017B
:101BF000161330C080917101909172010E945E1C99
:101C0000883C910538F5C0E2CD0F1D17B9F080E290
:101C1000810F883040F4177081E001C0880F1A9559
:101C2000EAF70E949B11C83048F481E09D2F97701D
:101C300001C0880F9A95EAF70E949411802F0E94A4
:101C40008111C830B8F4D77081E001C0880FDA95EF
:101C5000EAF70AC080E28C0F883060F4C77081E038
:101C600001C0880FCA95EAF7DF91CF911F910F91BC
:101C70000C949B11DF91CF911F910F9108959C01BE
:101C8000CB01203F4CE53407F9F078F4283DFCE522
:101C90003F07B9F0293D4CE5340711F1273D3C459C
:101CA00031F526E241EE61EE1EC0223FFCE53F0722
:101CB00099F070F0233F3C45D1F427E245EE66EE03
:101CC00012C027E245EE0EC026E241EE60EE0BC0E8
:101CD00027E245EE64EE07C026E241EE62EE03C065
:101CE00028E241E065EE0E94D20D80E00895FC01FB
:101CF0008281882319F010927301089581E008957C
:101D000090937901809378010895E0917801F091A2
:101D10007901309721F00190F081E02D099480E065
:101D20000895EF92FF920F931F93CF93DF93E0916B
:101D30007801F09179013097B1F18C010280F38143
:101D4000E02D09958091430282FF2DC080FF04C0E1
:101D500086EC93E00E949807E80118E080ECE82EFA
:101D600083E0F82E8091430280FF0BC088811F9290
:101D70008F93FF92EF920E9431080F900F900F9077
:101D80000F90115021961111EDCF8091430280FFE9
:101D90000AC08EEB93E0DF91CF911F910F91FF90DE
:101DA000EF900C949807DF91CF911F910F91FF90C6
:101DB000EF900895E0917801F0917901309739F032
:101DC00022E0DC012C930480F581E02D0994089534
:101DD00020917601309177018217930771F09093EB
:101DE000770180937601E0917801F0917901309745
:101DF00021F00680F781E02D099408952091740167
:101E0000309175018217930771F09093750180935B
:101E10007401E0917801F0917901309721F000840C
:101E2000F185E02D09940895089508950C94150FF7
:101E300008950C94180F0E94140F0C94160F81E053
:101E400008950E943D1C0E943C080E941D1D0C9498
:101E5000190FCF93C82F8091430282FF1EC080FFCD
:101E600004C08FED93E00E9498078091430280FFA9
:101E70000CC01F92CF938AED93E09F938F930E94A3
:101E800031080F900F900F900F908091430280FFC8
:101E900004C088ED93E00E9498078C2FCF910C949A
:101EA000440A4F925F926F927F929F92AF92BF923D
:101EB000CF92DF92EF92FF920F931F93CF93DF9316
:101EC000CDB7DEB72E970FB6F894DEBF0FBECDBFED
:101ED0000E9459080E941F0F811111C08FEF898342
:101EE0008A831B820E94461C8160782F9D838C838D
:101EF00049815A816B818D810E9434107CC04BE7EF
:101F0000A42E41E0B42E00E010E0902E802F0E941D
:101F10009109F501C190D190E190F1905F01C62641
:101F2000D726E826F926C114D104E104F10431F4DE
:101F30000F5F1F4F0830110541F7D0CF20914302AA
:101F400021FF0AC06B877C878D879E870E949E0930
:101F50009E858D857C856B8540E050E026013701AC
:101F6000042E04C076946794579447940A94D2F749
:101F700040FE3AC04E839F82C12CD12C7601C3947F
:101F800004C0CC0CDD1CEE1CFF1C4A95D2F72601C8
:101F90003701462257226822792281E045284628C7
:101FA000472809F480E088870E94461C8160782FCA
:101FB0009A8789874E815F8168858A850E9434105F
:101FC000000F111F000F111FF801E558FE4F80810F
:101FD0009181A281B381C826D926EA26FB26C08238
:101FE000D182E282F38207C04F5F5F4F42315105D9
:101FF00009F0B4CF9DCF0E944E2010917A010E942B
:10200000850E1817D9F00E94850E80937A012E96BE
:102010000FB6F894DEBF0FBECDBFDF91CF911F91F9
:102020000F91FF90EF90DF90CF90BF90AF909F9077
:102030007F906F905F904F900C94290F2E960FB663
:10204000F894DEBF0FBECDBFDF91CF911F910F91EE
:10205000FF90EF90DF90CF90BF90AF909F907F90D8
:102060006F905F904F900895CF93DF93CDB7DEB719
:102070002B970FB6F894DEBF0FBECDBF4F835887A6
:1020800069877A878B87DE01119686E0FD011192C0
:102090008A95E9F785E0FE01379601900D928A95C1
:1020A000E1F749815A816B817C818D819E810E94FB
:1020B00004172B960FB6F894DEBF0FBECDBFDF918D
:1020C000CF910895FC01808191810E94DA190895D1
:1020D000CF93DF931F92CDB7DEB7882309F4D9C021
:1020E000682F8CEF860F813A70F4862F69830E94E7
:1020F000C72469818111CDC08091010190910201B5
:102100000E94B21B0CC080E2860F883068F46770B2
:1021100081E001C0880F6A95EAF70E941C1A0F90AF
:10212000DF91CF910C94651A8BE5860F833088F48C
:10213000653A29F0663A31F083E890E005C081E81D
:1021400090E002C082E890E00F90DF91CF910C9474
:10215000E80E88E5860F873108F091C0683A09F4E7
:1021600045C0693A09F445C06A3A09F445C06B3A7A
:1021700009F445C06C3A09F445C06B3B09F445C00D
:102180006C3B09F445C06D3A09F445C0603B09F465
:1021900045C06E3A09F445C06F3A09F445C0613B49
:1021A00009F445C0623B09F445C0633B09F445C0EE
:1021B000643B09F445C0653B09F445C0663B09F43E
:1021C00045C0673B09F445C0683B09F445C0693B1D
:1021D00009F445C06D3B09F445C06E3B09F445C0A8
:1021E0006A3B09F445C080E090E044C082EE90E094
:1021F00041C089EE90E03EC08AEE90E03BC085EBA6
:1022000090E038C086EB90E035C083EB90E032C0C0
:1022100084EB90E02FC087EB90E02CC08CEC90E03A
:1022200029C08DEC90E026C083E891E023C08AE8C5
:1022300091E020C082E991E01DC084E991E01AC0DC
:1022400081E292E017C083E292E014C084E292E05F
:1022500011C085E292E00EC086E292E00BC087E2F8
:1022600092E008C08FE690E005C080E790E002C0F1
:102270008AE292E00F90DF91CF910C94FE0E603FC6
:1022800040F0862F0E94D41E0F90DF91CF910C94C6
:10229000C11F0F90DF91CF910895882389F19CEFA2
:1022A000980F913A40F4682F8091010190910201BA
:1022B0000E94B41B0DC090E2980F983058F48770BC
:1022C00091E001C0990F8A95EAF7892F0E94221A9E
:1022D0000C94651A9BE5980F933020F480E090E011
:1022E0000C94E80E98E5980F973120F480E090E088
:1022F0000C94FE0E803F20F00E943C1F0C94C11FE6
:102300000895CF93C82F0E946810C93349F42FEF66
:1023100083EC99E0215080409040E1F700C000003C
:102320008C2FCF910C944D11882321F00E941C1A00
:102330000C94651A0895882321F00E94221A0C94A7
:10234000651A08954F925F926F927F92BF92CF92DB
:10235000DF92EF92FF920F931F93CF93DF937C0155
:10236000062FC72FFC01158112951F70D281D11144
:102370000E94391A0E94121A882379F0DD2369F02D
:1023800080E2800F883048F082E00E94B01A0E94FC
:10239000121A91E0B82EB92601C0B12CCC2EC294ED
:1023A0008FE0C822D12CF601E35AFF4F0C94C82DC0
:1023B0008C2F807FCF70882311F0C295C07FDD23E2
:1023C00099F0CC2309F4C3C180E2800F883010F06B
:1023D000011104C08C2F0E941C1A03C08C2F0E9474
:1023E0002C1A0E94651AB3C1802F0E944D11CC2374
:1023F00009F4D2C180E2800F883010F0011104C0CE
:102400008C2F0E94221A03C08C2F0E94321A0E9425
:10241000651AC2C18C2F807FCF70803211F0C295B7
:10242000C07F002319F00130C9F022C0DD2371F014
:10243000112341F0113031F40E944C1A8C2B0E9470
:10244000521AAAC10E944C1A8C2B3AC1112319F0BE
:10245000113009F4A1C10E945B1A18C0DD2321F0DC
:10246000163008F099C10EC0153008F095C10EC0A5
:10247000DD2351F0112331F0F701858180FF67C121
:102480008F7085838C2F1CC1111172C18C2F1EC1BE
:102490008C2F86958695837090E0009719F00197B0
:1024A00061F07AC1DD2321F0802F9C2F937002C050
:1024B00080E090E00E94E80E7FC1DD2321F0802FB4
:1024C0009C2F937002C080E090E00E94FE0E74C1C9
:1024D000DD23F9F0053F51F0063F71F0043FA9F408
:1024E00080915F029091600281600BC080915F02D9
:1024F00090916002826005C080915F0290916002BD
:1025000084609093600280935F02802F0E94D41EAB
:102510001EC0053F51F0063F71F0043FA9F48091C1
:102520005F02909160028E7F0BC080915F0290915C
:1025300060028D7F05C080915F02909160028B7F69
:102540009093600280935F02802F0E943C1F0E9444
:10255000C11F32C18C2F837009F04BC0D11128C12B
:10256000202F229526952770220F220F602F6F7043
:10257000862F90E0A0E0B0E02C013D01022E04C0C7
:10258000440C551C661C771C0A94D2F704FF10C03B
:102590008FE090E0A0E0B0E004C0880F991FAA1F70
:1025A000BB1F2A95D2F780959095A095B09503C052
:1025B00080E090E0DC01C695C695C370D0E0BC0118
:1025C000CD016429752986299729C230D10559F092
:1025D000C330D10559F0219719F00E944D18E8C079
:1025E0000E943B18E5C00E945F18E2C00E943918A3
:1025F000DFC0DD2319F08C2F817001C08695882300
:1026000009F4D6C0202F229526952770220F220F7D
:10261000602F6F70862F90E0A0E0B0E02C013D01AC
:10262000022E04C0440C551C661C771C0A94D2F779
:1026300004FF10C08FE090E0A0E0B0E004C0880F7D
:10264000991FAA1FBB1F2A95D2F780959095A09538
:10265000B09503C080E090E0DC01C695C695C370DC
:10266000D0E0BC01CD016429752986299729C230A3
:10267000D10559F0C330D10559F0219719F00E94C6
:10268000131996C00E94011993C00E94251990C089
:102690000E9474188DC0802F90E0FC01E05EF1096B
:1026A000E531F10508F04FC0E359FF4F0C94C82DF8
:1026B0000F708C2F8F71DD2331F00E949A18802FBC
:1026C0000E94941169C00E94BB18802F0E949B1128
:1026D00063C0DD2341F0153008F05EC08C2F8F7190
:1026E0000E94E01859C0163008F056C0F7CFDD231D
:1026F00039F08C2F8F710E949A184EC0DD23C9F3D8
:102700008C2F8F710E94BB1847C0DD2329F08C2FBE
:102710008F710E94851840C00E9480183DC0DD2343
:1027200049F0CF718C2F0E949A1863E08C2F0E9481
:102730009B1A32C081E00E94B01A123068F182E028
:102740000E94B01A29C0DD2331F0112391F2802FAD
:102750000E94681021C0112399F2093349F4FFEF58
:1027600023EC89E0F15020408040E1F700C00000F8
:10277000802F0E944D1110C04C2F4F70602FC70149
:102780000E944C0B0E94AC1717C04C2F4F70602F4B
:10279000C7010E944F0B10C098E0C916D10441F048
:1027A0005CF0FAE0CF1AD10822E0C216D10420F47E
:1027B0000E94850E0E94440ABB20F1F00E940E1A6E
:1027C00080FD1AC0F70112820E94081A0E949A180E
:1027D000C7010E940A140E94081ADF91CF911F912D
:1027E0000F91FF90EF90DF90CF90BF907F906F9010
:1027F0005F904F900C94BB18DF91CF911F910F9178
:10280000FF90EF90DF90CF90BF907F906F905F90A0
:102810004F9008950F931F93CF93DF93EC0188811E
:1028200099812B813C81232BB9F09F3F11F48F3F7D
:1028300099F0CE010E94560A882371F0688179814F
:102840008A810E94E5198C010E9437190E9438186C
:10285000B801CE010E94A211DF91CF911F910F917B
:1028600008950E94391A0E94491A0E94651A0E940E
:10287000F5200E94C11F80E090E00E94E80E80E0F9
:1028800090E00C94FE0E80910101909102010E9453
:10289000B61B0C9431140E94291A0C944314E92F8E
:1028A000E295EF70F0E03297EE30F105B0F4EE57BC
:1028B000FF4F0C94C82D803F91F018F4803E68F4CF
:1028C0000EC0843F51F40BC0803E48F0813F29F494
:1028D00006C093FB882780F9089580E0089581E081
:1028E00008950E94DA190E944F140895CF93DF9340
:1028F00000D000D01F92CDB7DEB70F900F900F9091
:102900000F900F90DF91CF910895CF93DF9300D078
:1029100000D000D0CDB7DEB726960FB6F894DEBF54
:102920000FBECDBFDF91CF910895CF93DF93C091BC
:102930009C0180919D01C817A1F0D0E0CE0166E016
:1029400070E00E94972DFC01E256FE4F40815181BC
:1029500062817381848195810E9485142196C7705C
:10296000E8CFDF91CF9108954091CE015091CF01F2
:102970006091D0017091D1018091D2019091D301E9
:102980000C948514CF93DF938091D30182958F703F
:1029900009F05CC08091D001882309F457C02091D0
:1029A0009C01D0919D014091CE01C091CF01E09159
:1029B000D101F091D2012D1709F448C030E03097D1
:1029C00009F440C0CF3F11F44F3FE1F1C90166E087
:1029D00070E00E94972DDC01A256BE4F11968C919B
:1029E0001197C8132FC08C9148132CC012968C914C
:1029F0001297811127C013968D919C9114978E1771
:102A00009F0708F401978E1B9F0B883C9105D0F41B
:102A10008091D3018F7080618093D301C90166E0FA
:102A200070E00E94972DFC01ED55FE4F90819F7044
:102A3000906190838EEC91E00E940A14DF91CF9117
:102A40000C9495142F5F3F4F2770B5CFDF91CF9136
:102A50000895BF92CF92DF92EF92FF920F931F9350
:102A6000CF93DF93CDB7DEB761970FB6F894DEBF93
:102A70000FBECDBF8C0185E0F801DE011D960190EF
:102A80000D928A95E1F7D8014C9111962C911197EE
:102A90001296EC9012971396CD90DC90149750916B
:102AA000CE016091CF018091D1019091D201009728
:102AB00009F46EC16F3F19F45F3F09F469C1B0902A
:102AC000D001BB2009F4C3C03091D301C816D90688
:102AD00028F0F601E81BF90BCF0104C08095909512
:102AE0008C0D9D1DFF24F394883C910588F0F12CFA
:102AF000307F09F0CBC07C2DD98AC88A522F6E2D29
:102B000089890E9476148EEC91E00E940A14B4C068
:102B1000832F807F09F049C0621314C0541312C080
:102B2000E11010C03F7030613093D3010E94B414A3
:102B30008EEC91E00E940A148091D301D801159681
:102B40008C9331C0CD2831F12F3F11F44F3F11F15B
:102B5000FE2CE1101FC0E0919C0130919D01E31714
:102B600009F45CC0F0E0CF0166E070E00E94972DB0
:102B7000DC01A256BE4F11968C911197281307C005
:102B80008C91481304C012968C91811103C0319628
:102B9000E770E5CFFE2CEE2009F425C18091D3012A
:102BA00081608093D301F12C1EC1621308C05413BD
:102BB00006C0E11004C08091D301D801C1C04D8787
:102BC0002E878D859E850E9471148823E1F1EE2069
:102BD000D1F12091D301822F82958F7090E00297DE
:102BE00074F08091CE019091CF0198878F831986E0
:102BF000DB86CA862C87CE0107960E940A1486E0DF
:102C0000F801AEECB1E001900D928A95E1F70E94D7
:102C1000C2140E94B414FF24F394E5C04D872E879C
:102C20008D859E850E94DA19292F22952F7030E01C
:102C3000223031050CF0CBC09F7009F0C5C0805E1A
:102C4000883008F4D0C0C8010E940A14E4CFC81626
:102C5000D90608F453C0F601E81BF90BCF01883CF4
:102C6000910508F450C0F12C7C2DD98AC88A522FC6
:102C70006E2D89890E947614EEECF1E086E0DF018A
:102C80001D928A95E9F70E94B414ADC0621314C076
:102C9000541312C0E11010C08091D301F801858354
:102CA000C8010E940A1486E0EEECF1E0DF011D92FB
:102CB0008A95E9F7FB2C97C04D872E878D859E85D9
:102CC0000E947114882309F4BECFEE2009F4BBCF13
:102CD0002091D301822F82958F7090E002970CF49F
:102CE0008ECF8091CE019091CF019A8389831B82F0
:102CF000DD82CC822E83CE0101967FCF8095909588
:102D00008C0D9D1DACCFFE2CEE2009F49CCF6213E0
:102D10002EC054132CC02091D30120FD1FC0822F40
:102D200082958F70D9F0D80115962C9315978F3016
:102D300049F08F5F982F9295907F822F8F70892B0B
:102D400015968C93C8010E940A1486E0F801AEEC37
:102D5000B1E001900D928A95E1F795CF86E0F801F8
:102D6000AEECB1E001900D928A95E1F73CC04D8741
:102D70002E878D859E850E947114811140CF809190
:102D8000D30181608093D301C8010E940A142BC033
:102D9000EE2009F458CF4D872E878D859E850E94A1
:102DA0007114F82E882309F44ECF86E0F801AEECBA
:102DB000B1E001900D928A95E1F78EEC91E00E94CE
:102DC00062100E94C2145FCF811139CF0CC0243031
:102DD00031050CF038CF9F7009F431CFF80195819F
:102DE000907F09F02CCF8F2D61960FB6F894DEBF3F
:102DF0000FBECDBFDF91CF911F910F91FF90EF904C
:102E0000DF90CF90BF900895CF93DF93CDB7DEB71B
:102E10002C970FB6F894DEBF0FBECDBF4F835887F7
:102E200069877A878B879C87CE0107960E94291530
:102E3000882371F08F8198852A853B85232B09F49F
:102E40003FC09F3F09F068C08F3F09F065C038C0A0
:102E500086E0FE013796DE01119601900D928A956B
:102E6000E1F76F817885EA85FB85309749F17F3FEF
:102E700011F46F3F29F180919D0190E09C012F5F3B
:102E80003F4F2770332740919C0150E024173507AE
:102E900009F44BC069837A83FD83EC8366E070E0BC
:102EA0000E94972DDC01A256BE4F96E0FE0131969E
:102EB00001900D929A95E1F720939D010E9495143F
:102EC00080919C0190919D018917E9F190E066E065
:102ED00070E00E94972D82569E4F0E9429158823EC
:102EE00091F180919C0190E066E070E00E94972D46
:102EF000FC01E256FE4F40815181628173818481E1
:102F000095810E94851480919C0190E001968770C4
:102F1000992780939C01D4CF4F81588569857A8504
:102F20008B859C850E948514CBCF0E944B141092F8
:102F30009D0110929C01EEECF1E086E0DF011D9214
:102F40008A95E9F7BDCF2C960FB6F894DEBF0FBE79
:102F5000CDBFDF91CF910895EF92FF920F931F9312
:102F6000CF93DF938C01892B09F46CC0F12CEE24F4
:102F7000E394E8012196F8018491843740F4843089
:102F800008F051C0813081F0823019F15BC0853783
:102F900009F444C0A8F19CE7980F903708F052C09C
:102FA0008F770E944D1141C00E5F1F4FFE01C491EB
:102FB00080E28C0F883048F4C7708E2D01C0880FD6
:102FC000CA95EAF70E943C1A14C08C2F0E94681020
:102FD0002DC00E5F1F4FFE01C49180E28C0F883020
:102FE00058F4C7708E2D01C0880FCA95EAF70E9469
:102FF000421A0E94651A1AC08C2F0E944D1116C0E9
:103000000E5F1F4FFE01C491CC2381F08FE99FE03A
:103010000197F1F700C00000C150F6CF0E5F1F4FBF
:10302000FE01F49003C00E9468108E018F2D88234A
:1030300009F49FCFEFE9FFE03197F1F700C00000FE
:103040008150F5CFDF91CF911F910F91FF90EF90BD
:10305000089508950C9429180E942A18609332024A
:103060007093330280933402909335020C943114A0
:1030700008950C942C180F931F9300913202109115
:1030800033022091340230913502602B712B822B58
:10309000932B1F910F910C942C180F931F93009159
:1030A00032021091330220913402309135026023B4
:1030B0007123822393231F910F910C942C180F934B
:1030C0001F9300913202109133022091340230910B
:1030D000350260277127822793271F910F910C9447
:1030E0002C1808950C9471180E94721860932E0287
:1030F00070932F0280933002909331020C9431141C
:1031000060E070E0CB010C9474180F931F9341E0C2
:1031100050E060E070E08A019B0104C0000F111FC5
:10312000221F331F8A95D2F7C901B8011F910F9151
:103130000C9474180F931F9341E050E060E070E02E
:1031400004C0440F551F661F771F8A95D2F78091E0
:103150002E0290912F02A0913002B09131028A018B
:103160009B01082B192B2A2B3B2BC901B8011F915E
:103170000F910C9474180F931F9341E050E060E09E
:1031800070E004C0440F551F661F771F8A95D2F761
:10319000409550956095709580912E0290912F02E8
:1031A000A0913002B09131028A019B0108231923BA
:1031B0002A233B23C901B8011F910F910C94741865
:1031C0000F931F9341E050E060E070E004C0440FB3
:1031D000551F661F771F8A95D2F780912E02909116
:1031E0002F02A0913002B09131028A019B01082781
:1031F00019272A273B27C901B8011F910F910C9469
:1032000074180F931F9300912E0210912F0220919A
:10321000300230913102602B712B822B932B1F9146
:103220000F910C9474180F931F9300912E0210911C
:103230002F022091300230913102602371238223CA
:1032400093231F910F910C9474180F931F93009167
:103250002E0210912F02209130023091310260270E
:103260007127822793271F910F910C94741808954A
:10327000282F362F892F62E10E948E2D820F982FE2
:103280009770A1E001C0AA0F9A95EAF786958695F6
:10329000869590E065E070E00E94972DFC01EC526D
:1032A000FE4F40E050E0632F70E090819B01042EC0
:1032B00002C0369527950A94E2F7217033272195AD
:1032C00029272A23292721934F5F5F4F4530510536
:1032D00061F70895282F892F62E10E948E2D820FB9
:1032E000A82FA77086958695869590E065E070E09A
:1032F0000E94972DBC0140E050E080E0FA01E60F0B
:10330000F71FEC52FE4F208130E00A2E02C03695A6
:1033100027950A94E2F721703327042E01C0220F6B
:103320000A94EAF7822B4F5F5F4F4530510531F722
:103330000895BF92CF92DF92EF92FF920F931F9367
:10334000CF93DF938C01C0903202D0903302E09093
:103350003402F090350280912E0290912F02A091BC
:103360003002B0913102C82AD92AEA2AFB2ACFE1D9
:10337000D0E0D701C6010C2E04C0B695A79597954D
:1033800087950A94D2F780FF07C0BC2EB8018C2F16
:103390000E94710B019719F4219758F7B12C8B2DCE
:1033A000DF91CF911F910F91FF90EF90DF90CF9021
:1033B000BF900895CF93DF93EC010E949919BE014D
:1033C0000E94710BDF91CF9108951F93CF93DF93EC
:1033D000EB0190919B01992321F0CB010E94DA1916
:1033E00013C0882349F0CB010E949919182F682F28
:1033F000CE010E94381904C0CB010E946A19182F0F
:10340000BE01812F0E94710BDF91CF911F91089512
:10341000809136028595859585950895809136022F
:103420008770089590913602977081E009F480E0EA
:10343000089580914202089590914202892B8093D1
:10344000420208958095909142028923809342021E
:10345000089510924202089590914102892B809321
:103460004102089580959091410289238093410201
:10347000089510924102089590914002892B809303
:1034800040020895809590914002892380934002E4
:10349000089510924002089580913702089508958A
:1034A0000C944F1A90913702981721F080933702AD
:1034B0000C94501A089580913702882329F01092B5
:1034C000370280E00C94501A0895E0910101F091C8
:1034D0000201809142028083E0910101F09102019A
:1034E000908180914102892B8083E0910101F091CC
:1034F0000201908180914002892B80838091370264
:10350000882381F0E0910101F09102019081892BE3
:10351000808380910101909102010E94801B8111A2
:103520000E945B1A80910101909102010C94910E0E
:1035300008950C94981A982F990F990F990F692B49
:10354000609336020E949A1880913602859585957F
:1035500085950C94991A1092360280E00C94991A71
:10356000209136028095822380933602982F97709F
:1035700079F430E0482F082E000C550B241735073E
:1035800039F08595859585950E94BB180C94AB1AEA
:10359000089590932F0180932E0108958295982F7E
:1035A0009C7C292F26952695982F9373990F990F18
:1035B000922B892F8A7A86959575990F892B089574
:1035C0001F93CF93DF931F92CDB7DEB799830E94ED
:1035D000CE1A182F9981892F0E94CE1A212F30E000
:1035E000322F2227A901482BCA010F90DF91CF91DA
:1035F0001F91089580E090E00E94EA2D21E08D3E29
:103600009E4F09F020E0822F089582E090E00C9414
:10361000E22D682F82E090E00C94F02D83E090E0A2
:103620000C94E22D682F83E090E00C94F02D84E060
:1036300090E00C94E22D682F84E090E00C94F02D43
:10364000AB01BC018FE090E00C94022EAB01BC01F9
:1036500083E190E00C94022E60E070E0CB010C94CA
:10366000261B60E070E0CB010E94201B0C942C1BF9
:103670006DEE7EEF80E090E00E940E2E60E082E032
:1036800090E00E94F02D60E083E090E00E94F02D39
:1036900010923202109233021092340210923502CC
:1036A00060E084E090E00E94F02D60E085E090E032
:1036B0000E94F02D60E086E090E00E94F02D6FEF18
:1036C00087E090E00E94F02D40E050E0BA0188E0F1
:1036D00090E00E94022E60E08DE090E00E94F02DCC
:1036E00040E050E0BA0188E190E00E94022E60E0E4
:1036F00087E190E00E94F02D0C94311B0C94381B54
:10370000FC01329697E080E0915029F0219122232C
:10371000D9F38F5FF9CF08959C01FC0132969FEF9A
:1037200080E04191461789F09F3F19F4411101C093
:10373000982F8F5F8630A9F79F3F39F0F901E90F85
:10374000F11D97FDFA95628308950895FC01329664
:1037500008962081261301C010823196E817F907D8
:10376000C1F708950C948C1B0C94A61B029626E0BE
:10377000FC0111922A95E9F7089508950C94BD1B58
:103780000E94BE1B80916B02843049F1109244026A
:1037900020E488E190E00FB6F894A895809360004B
:1037A0000FBE2093600080E00E94440A0E94BE1B6E
:1037B00083B7817F846083BF83B7816083BF789440
:1037C000889583B78E7F83BF0FB6F894A8958091B4
:1037D0006000886180936000109260000FBE0895C1
:1037E00008950895CF930E94F01B0E9459080E94EB
:1037F000F11BC0E08C2F0E949109672B682B692B6D
:1038000029F4CF5FC830B1F780E001C081E0CF91EB
:10381000089508950C94091C0E944B140E94850E73
:103820000E94440A0C940A1C1F920F920FB60F922A
:1038300011248F939F93AF93BF9380914402811182
:1038400013C08091610290916202A0916302B091D5
:1038500064024196A11DB11D8093610290936202A2
:10386000A0936302B0936402BF91AF919F918F9137
:103870000F900FBE0F901F90189582E084BD93E0CB
:1038800095BD9AEF97BD80936E0008952FB7F89479
:103890008091610290916202A0916302B0916402F2
:1038A0002FBF08952FB7F894609161027091620262
:1038B00080916302909164022FBF0895CF92DF92AE
:1038C000EF92FF920F931F932FB7F89440916102EC
:1038D0005091620260916302709164022FBF6A018D
:1038E0007B01EE24FF248C0120E030E0C016D106DD
:1038F000E206F30610F4415051099A01281B390BD6
:10390000C9011F910F91FF90EF90DF90CF90089524
:1039100078941F920F920FB60F9211248F939F935A
:10392000AF93BF938091610290916202A091630274
:10393000B09164020196A11DB11D80936102909324
:103940006202A0936302B0936402BF91AF919F9112
:103950008F910F900FBE0F901F90189581E080936C
:10396000E00080E28093D8001092C9008FE19EE4CD
:103970000197F1F700C0000087E090EBDC01809335
:10398000740290937502A0937602B09377029CE044
:1039900088E10FB6F894A895809360000FBE9093CD
:1039A0006000FFCF8F929F92AF92BF92EF92FF92F3
:1039B0000F931F93CF93C0E0E82EF12C8C2F0E9421
:1039C00091094B015C0100E010E0D501C401002E1B
:1039D00004C0B695A795979587950A94D2F780FD70
:1039E00006C00F5F1F4F0231110579F70AC0602F23
:1039F0007C2F80E00E94500BE816F90691F781E0D9
:103A000004C0CF5FC830D1F680E0CF911F910F91F5
:103A1000FF90EF90BF90AF909F908F900895CF93BD
:103A2000C82F8CE20E94D21C882321F08C2FCF91CA
:103A30000C94D21C80E0CF910895CF930E94FA1A83
:103A4000811102C00E947E1B89EF93E00E949807BB
:103A5000C5E6C15049F00E9459088FE39CE90197DF
:103A6000F1F700C00000F5CF82EF93E00E949807C5
:103A700089E20E940F1D81110FC18AE20E940F1D71
:103A800081110E947E1B85E00E940F1D81110E9402
:103A9000AE1C0E94051B8093430287E00E940F1D0D
:103AA0008823A9F18BE10E940F1D882351F080919A
:103AB000430281FB222720F991E0922790FB81F9B4
:103AC0000EC08EE00E940F1D882361F0809143029A
:103AD00082FB222720F991E0922790FB82F98093C4
:103AE000430215C080E10E940F1D9091430288237C
:103AF00041F093FB222720F981E0822780FB93F994
:103B000004C0892F809580FB90F9909343028091A7
:103B100043020E94091B0E94171B90E090936602CB
:103B20008093650280EE0E940F1D882341F08091F2
:103B30006502982F909590FB80F98093650289E348
:103B40000E940F1D882359F08091650281FB222776
:103B500020F991E0922790FB81F98093650282EE33
:103B60000E940F1D882359F08091650282FB222755
:103B700020F991E0922790FB82F98093650286EE0E
:103B80000E940F1D882359F08091650283FB222734
:103B900020F991E0922790FB83F98093650283EEF0
:103BA0000E940F1D882359F08091650284FB222713
:103BB00020F991E0922790FB84F98093650285E3D8
:103BC0000E940F1D882359F08091650285FB2227F2
:103BD00020F991E0922790FB85F98093650281E3BB
:103BE0000E940F1D882359F08091650286FB2227D1
:103BF00020F991E0922790FB86F98093650281E19C
:103C00000E940F1D882359F08091650287FB2227AF
:103C100020F991E0922790FB87F9809365028091CB
:103C200065020E941B1B87E20E940F1DC82F8EE1B8
:103C30000E940F1D8111C2608FE10E940F1D811132
:103C4000C46080E20E940F1D8111C86081E20E9461
:103C50000F1D8111C06182E20E940F1D8111C0629F
:103C600083E20E940F1D8111C06484E20E940F1D37
:103C7000882311F0C06802C0CC2329F08C2F0E9449
:103C8000121B6C2F03C00E940E1B682F70E080E097
:103C900090E0CF910C943918CF910895809148020B
:103CA00080FF0CC08091060190E065E070E00E940A
:103CB000972D95958795959587952EC081FF0AC07C
:103CC0008091060190E065E070E00E94972D959547
:103CD000879522C082FF08C08091060190E065E0D0
:103CE00070E00E94972D18C0209147022223D1F046
:103CF00030910501231780F78091060190E065E07F
:103D000070E00E94972D622F70E00E94972D632F24
:103D100070E00E94B42DCB018038910530F40097FB
:103D200031F0089585E090E008958FE7089581E0EF
:103D300008958091480280FF08C06091040170E0FE
:103D4000759567957595679523C081FF06C060914D
:103D5000040170E0759567951BC082FF04C06091F7
:103D6000040170E012C0609147026623D1F02091F7
:103D700003016217A0F78091040170E090E00E94B7
:103D8000972D622F70E00E94B42D6038710528F4E1
:103D90006115710521F0862F08958FE7089581E060
:103DA000089561E070E0F4CF803F21F40E944E1E40
:103DB000819504C0813F29F40E944E1E80934C02DD
:103DC0000895823F21F40E944E1E819504C0833FD6
:103DD00029F40E944E1E80934B020895893F19F4E6
:103DE0000E94991E05C08A3F31F40E94991E819558
:103DF00080934D0208958B3F21F40E94991E819576
:103E000004C08C3F29F40E94991E80934E020895AD
:103E1000843F21F480914A02816017C0853F21F4DC
:103E200080914A02826011C0863F21F480914A024B
:103E300084600BC0873F21F480914A02886005C0EE
:103E4000883F31F480914A02806180934A0208954C
:103E50008D3F21F48091480281600BC08E3F21F498
:103E600080914802826005C08F3F29F4809148020A
:103E70008460809348020895803F39F480914C0219
:103E800087FF6CC010924C0269C0813F29F4809179
:103E90004C021816BCF362C090914B02823F29F489
:103EA00097FF5CC010924B0259C0833F19F419165A
:103EB000CCF354C0893F41F480914D0218160CF0A8
:103EC0004DC010924D024AC08A3F29F480914D02A4
:103ED00087FF44C0F6CF8B3F39F480914E0287FFB5
:103EE0003DC010924E023AC08C3F29F480914E02A0
:103EF0001816BCF333C0843F21F480914A028E7FB0
:103F000017C0853F21F480914A028D7F11C0863F02
:103F100021F480914A028B7F0BC0873F21F480916E
:103F20004A02877F05C0883F31F480914A028F7E24
:103F300080934A0213C08D3F21F4809148028E7F06
:103F40000BC08E3F21F4809148028D7F05C08F3FCA
:103F500029F4809148028B7F8093480280914B0224
:103F600081110EC080914C0281110AC080914D02D6
:103F7000811106C080914E02811102C01092470249
:103F800008958091430283FF7EC085E394E00E9400
:103F9000980780914A021F928F9380E394E09F9349
:103FA0008F930E9431088EE294E00E9498078091DE
:103FB0004B02282F082E000C330B3F938F938BE27C
:103FC00094E09F938F930E94310889E294E00E94CD
:103FD000980780914C02282F082E000C330B3F933A
:103FE0008F9386E294E09F938F930E94310884E23E
:103FF00094E00E94980780914D02282F082E000C13
:10400000330B3F938F9381E294E09F938F930E94B1
:1040100031088FE194E00E94980780914E02282F8A
:10402000082E000C330B3F938F938CE194E09F9309
:104030008F930E94310889E194E00E949807809153
:1040400047021F928F9386E194E09F938F930E9483
:10405000310884E194E00E949807809148021F9201
:104060008F9381E194E09F938F930E9431088EE0BB
:1040700094E00E9498078DB79EB74C960FB6F894BF
:104080009EBF0FBE8DBF89E492E00E94DA0E0E94AF
:10409000461C909346028093450208951F93CF9348
:1040A000DF9380914502909146020E945E1CFC01C4
:1040B00020914702222329F090910701892F90E057
:1040C00007C08091080190E06AE070E00E94972D9F
:1040D000E817F90708F485C080914B02C0914C02A3
:1040E000D0914D0210914E02811107C0C11175C0CF
:1040F000D11173C0111171C074C02F3F19F02F5F1F
:1041000020934702181624F40E944E1E80934B02FF
:1041100080914B0287FF05C00E944E1E81958093BF
:104120004B021C1624F40E944E1E80934C02809178
:104130004C0287FF05C00E944E1E819580934C0261
:1041400080914B02882331F140914C02442311F1BC
:10415000082E000C990B65EB70E00E94972D292F1B
:10416000392F330F330B232B19F090934B0203C0DD
:1041700081E080934B02842F440F990B65EB70E034
:104180000E94972D892F990F990B009709F481E0D0
:1041900080934C021D1624F40E94991E80934D02B8
:1041A00080914D0287FF05C00E94991E81958093E2
:1041B0004D02111624F40E94991E80934E028091A4
:1041C0004E0287FF05C00E94991E819580934E0282
:1041D000DF91CF911F910C94C11F2F3F09F08FCF1A
:1041E00097CFDF91CF911F910895E9E4F2E086E047
:1041F000DF011D928A95E9F710924702109248025A
:10420000089588E596E00E9498071F9281E08F93B9
:104210001F9285E08F938AE096E09F938F930E9490
:1042200031080F900F900F900F900F900F900895FE
:104230008330E9F128F4813061F0823009F108958A
:10424000853009F462C008F449C0863009F474C0AE
:10425000089580910801262F30E0280F311D2F3F4F
:10426000310524F4680F6093080103C08FEF809339
:104270000801809108011F928F9383E495E072C03A
:1042800080910701262F30E0280F311D2F3F310587
:1042900024F4680F6093070103C08FEF8093070138
:1042A000809107011F928F9381E395E05BC080911D
:1042B0000601262F30E0280F311D2F3F310524F451
:1042C000680F6093060103C08FEF80930601809111
:1042D00006011F928F938EE195E044C08091050105
:1042E000262F30E0280F311D2F3F310524F4680FB1
:1042F0006093050103C08FEF809305018091050154
:104300001F928F9389E095E02DC080910401262FA4
:1043100030E0280F311D2F3F310524F4680F6093E2
:10432000040103C08FEF80930401809104011F9268
:104330008F9380EF94E016C080910301262F30E028
:10434000280F311D2F3F310524F4680F60930301BE
:1043500003C08FEF80930301809103011F928F931D
:1043600085ED94E09F938F930E9431080F900F90FA
:104370000F900F900895833081F128F4813059F027
:104380008230D1F00895853009F449C0B8F1863003
:1043900009F456C0089580910801681720F4861B1F
:1043A0008093080102C010920801809108011F92B9
:1043B0008F9386EC94E054C080910701681720F435
:1043C000861B8093070102C01092070180910701AC
:1043D0001F928F9384EB94E043C08091060168178D
:1043E00020F4861B8093060102C010920601809182
:1043F00006011F928F9381EA94E032C080910501FB
:10440000681720F4861B8093050102C010920501F5
:10441000809105011F928F938CE894E021C08091D8
:104420000401681720F4861B8093040102C01092D7
:104430000401809104011F928F9383E794E010C0E0
:1044400080910301681720F4861B8093030102C04A
:1044500010920301809103011F928F9388E594E0ED
:104460009F938F930E9431080F900F900F900F90A1
:104470000895CF93C82F1F928F938DE597E09F9358
:104480008F930E94310881E090E0A0E0B0E0BC0191
:10449000CD0104C0660F771F881F991FCA95D2F7F8
:1044A0000E9439180F900F900F900F90CF910C949D
:1044B0004B14CF938B3109F4D1C108F067C18B3015
:1044C00009F48AC108F03DC1863009F488C120F49E
:1044D000853009F496C144C2873009F4A4C18830FC
:1044E00009F03EC286EA9CE00E94980787EF9BE0B5
:1044F0000E9498070E940E1B1F928F9384EF9BE0EF
:104500009F938F930E94310882EF9BE00E9498074F
:104510000E94051BC82F8FED9BE00E9498071F92F9
:10452000CF938AED9BE09F938F930E94310888ED93
:104530009BE00E9498078EEC9BE00E9498078C2FCE
:1045400081701F928F938BEC9BE09F938F930E94BF
:10455000310889EC9BE00E9498078FEB9BE00E945A
:104560009807C1FB882780F91F928F938CEB9BE003
:104570009F938F930E9431088AEB9BE00E949807DB
:104580008EEA9BE00E949807C2FB882780F91F9261
:104590008F938BEA9BE09F938F930E94310889EA67
:1045A0009BE00E94980780EA9BE00E949807C3FB6B
:1045B000CC27C0F91F92CF938DE99BE09F938F93F7
:1045C0000E9431088BE99BE00E9498070E94171B0C
:1045D000C82F87E89BE00E9498071F92CF9382E83C
:1045E0009BE09F938F930E94310880E89BE00E949C
:1045F000980787E69BE00E9498078C2F81701F9296
:104600008F9384E69BE09F938F930E9431088DB730
:104610009EB780960FB6F8949EBF0FBE8DBF82E600
:104620009BE00E9498078BE49BE00E949807C1FBE7
:10463000882780F91F928F9388E49BE09F938F9344
:104640000E94310886E49BE00E94980784E39BE087
:104650000E949807C2FB882780F91F928F9381E3FD
:104660009BE09F938F930E9431088FE29BE00E9412
:1046700098078DE19BE00E949807C3FB882780F98B
:104680001F928F938AE19BE09F938F930E94310842
:1046900088E19BE00E9498078EE09BE00E949807CB
:1046A000C4FB882780F91F928F938BE09BE09F9338
:1046B0008F930E94310889E09BE00E94980787EF62
:1046C0009AE00E949807C5FB882780F91F928F9374
:1046D00084EF9AE09F938F930E94310882EF9AE0D3
:1046E0000E94980786ED9AE00E949807C6FB8827EB
:1046F00080F91F928F9383ED9AE09F938F930E948E
:10470000310881ED9AE00E94980789EC9AE00E94B6
:104710009807C7FBCC27C0F91F92CF9386EC9AE08D
:104720009F938F930E94310884EC9AE00E9498072F
:104730008DB79EB74C960FB6F8949EBF0FBE8DBF37
:1047400049C0803109F4B4C020F48E3009F49AC015
:1047500007C1863109F4C7C0893109F001C18BEE68
:1047600098E00E94980784EC98E00E94980784E7FC
:1047700098E00E9498078AE398E00E9498078AEFE1
:1047800097E00E9498078BEC97E08FC08A32E1F0A7
:1047900060F4873209F4E0C028F48E3108F4E0C0F8
:1047A0008D51DBC0893269F1DBC0833448F48A3330
:1047B00008F0D0C0853309F4CFC0883369F0D0C089
:1047C000833409F4C9C0CCC085E99CE00E949807F5
:1047D0000E947E1BC1E0C9C081E299E066C0809161
:1047E0004302817F8E7F809343028AEF98E00E948C
:1047F000980781E99CE00E94980781E0809350022D
:10480000E9CF0E944B1485E79CE00E9498079FEF38
:1048100023ED80E3915020408040E1F700C000008C
:104820000E94AE1CD7CF80914302C82FC095C170A3
:10483000C0FB80F980934302CC2329F089E69CE0F9
:104840000E94980792C08CE59CE00E949807809196
:104850004302897F877F80934302BCCF90914302BC
:1048600091FBCC27C0F981E0C827892FC0FB81F9D3
:1048700080934302CC2319F08FE49CE029C081E4AB
:104880009CE013C09091430292FBCC27C0F981E0D9
:10489000C827892FC0FB82F980934302CC2319F0EB
:1048A00082E39CE015C082E29CE00E94980792CFD0
:1048B0009091430293FBCC27C0F981E0C827892F50
:1048C000C0FB83F980934302CC2351F086E19CE046
:1048D0000E9498078091430281608093430245C003
:1048E00089E09CE0E2CF8DEB97E00E9498070E9460
:1048F000850E1F928F9383EA97E09F938F930E9478
:104900003108809113011F928F938CE897E09F9359
:104910008F930E94310880915D021F928F9389E7E7
:1049200097E09F938F930E9431080E94521C9F939F
:104930008F937F936F9382E697E09F938F930E946C
:1049400031088DB79EB742960FB6F8949EBF0FBE42
:104950008DBF40CF895301C080E00E9439223ACFF9
:1049600087E09CE00E949807C0E08C2FCF910895CB
:1049700080E0089580E008958E518A3030F4E82F69
:10498000F0E0EC5EFE4F8081089580E00895CF93C3
:10499000C82F80915002813059F020F0823009F404
:1049A00045C039C10E94191A823209F036C104C0CB
:1049B0000E94191A823261F48C2F0E94B82481114E
:1049C00004C08C2F0E9459222FC081E090E02CC09F
:1049D0008C2F0E94BA24811126C0C431E1F070F4FA
:1049E000CB3081F0C031D1F40E94012185E597E000
:1049F0000E94980782E08093500215C0C93259F096
:104A0000C83361F48AEF98E00E94980789E597E03F
:104A10000E94980708C01092500201C183E597E0F8
:104A20000E949807FCC081E08170FBC0C43228F569
:104A3000CE3108F0C1C0CB30A1F1D0F4C73009F0BD
:104A4000D0C08EE18093080182E3809307018AE061
:104A50008093060184E18093050188E0809304013E
:104A600088E28093030189EF95E00E949807BCC01B
:104A7000C33149F1C431C1F0B4C0CB3409F4A6C08C
:104A800028F4C93289F0C83361F0ABC0C13509F4EC
:104A90009BC0C23509F496C0CE3409F0A2C06AE0CA
:104AA0009BC00E940121A0C080914F02882319F071
:104AB00010924F0299C086E096E00E94980781E02C
:104AC00080935002AEC080EE95E00E9498078EEC75
:104AD00095E00E949807809108011F928F938BECBC
:104AE00095E09F938F930E94310889EC95E00E9496
:104AF000980787EB95E00E949807809107011F9225
:104B00008F9384EB95E09F938F930E94310882EB03
:104B100095E00E94980783EA95E00E9498078091AB
:104B200006011F928F9380EA95E09F938F930E94D6
:104B300031088EE995E00E9498078DE895E00E9483
:104B40009807809105011F928F938AE895E09F93C3
:104B50008F930E94310888E895E00E94980783E7C8
:104B600095E00E949807809104011F928F9380E73F
:104B700095E09F938F930E9431088EE695E00E9406
:104B8000980787E595E00E949807809103011F929E
:104B90008F9384E595E09F938F930E94310882E57F
:104BA00095E00E9498078DB79EB748960FB6F89487
:104BB0009EBF0FBE8DBF18C08C2F0E94BC24809357
:104BC0004F0212C061E003C061E006C06AE080915C
:104BD0004F020E94182108C080914F020E94BB2101
:104BE00003C087EF95E013C080914F02882369F0DE
:104BF0001F928F9381EF95E09F938F930E943108CE
:104C00000F900F900F900F9004C08EEE95E00E94D1
:104C1000980781E006C01092500280E002C080E058
:104C200003CFCF91089580915C0208959FB7F894C7
:104C3000109253029FBF90916B02943009F057C0BD
:104C40009091E9009F703091EC00232F217030FD8E
:104C500020E8922B23E02093E9002091EB0020FF35
:104C600043C02091EE0027FF3FC020915102222334
:104C700021F02091E80025FF37C01092510226E074
:104C80003091E80035FD15C030916B02343061F58C
:104C90003091EB0035FD28C0215021F481E0809354
:104CA000510222C0EFE9FFE03197F1F700C00000A8
:104CB000E7CF8093F1008091E80085FD0AC08091E4
:104CC000E80080FFFCCF8091E8008E778093E800B9
:104CD00006C08FB7F89421E0209353028FBF9F70D6
:104CE0009093E90080E008959F709093E9008FEF22
:104CF00008950F931F93CF93DF9300D01F92CDB7EA
:104D0000DEB78C010E941729823011F0843021F522
:104D100084E089831B830A8382E08093E9008FEF1C
:104D20009091E800815095FD06C095ED9A95F1F7B8
:104D300000008111F5CF8091E80085FF0DC040E0B3
:104D400050E063E070E0CE0101960E94342980912A
:104D5000E8008E778093E8000F900F900F90DF911E
:104D6000CF911F910F910895CF93DF9300D01F92A1
:104D7000CDB7DEB720916B02243031F523E02983D3
:104D8000805891099B838A8382E08093E9008FEFAA
:104D90009091E800815095FD06C095ED9A95F1F748
:104DA00000008111F5CF8091E80085FF0DC040E043
:104DB00050E063E070E0CE0101960E9434298091BA
:104DC000E8008E778093E8000F900F900F90DF91AE
:104DD000CF910895CF93DF93EC010E941729823081
:104DE00011F08430F9F482E08093E9009FEF809124
:104DF000E800915085FD06C085ED8A95F1F7000029
:104E00009111F5CF8091E80085FF0CC040E050E0A3
:104E100066E070E0CE010E9434298091E8008E7730
:104E20008093E800DF91CF910895CF93DF93EC0159
:104E30000E941729823011F0843039F581E0809387
:104E4000E9008FEF9091E800815095FD06C095ED47
:104E50009A95F1F700008111F5CF8091E80085FF68
:104E600014C040E050E068E070E0CE010E943429B8
:104E70008091E8008E778093E80088E0FE01A4E549
:104E8000B2E001900D928A95E1F7DF91CF910895FC
:104E90008EEC9CE00C9498078AEC9CE00C949807AC
:104EA00086EC9CE00E9498070C940C1C2091520206
:104EB0002F5F822F62E30E94A82D992319F020937F
:104EC000520208951092520280915302882371F188
:104ED00080916B02843041F58091E9008F702091C0
:104EE000EC00922F917020FD90E8892B93E0909335
:104EF000E9009091EB0090FF14C09091EE0097FFB5
:104F000010C09091E80095FF03C01092F100F9CF16
:104F10009091E80090FF05C09091E8009E779093F3
:104F2000E8008F708093E90010925302089542E0E8
:104F300061EC81E00E943D2A42E261EC82E00E9445
:104F40003D2A42E261EC83E00C943D2A80916D029F
:104F5000833009F45CC030F4813071F0823009F4A0
:104F600095C008958A3009F481C08B3009F467C078
:104F7000893009F0A3C020C080916C02813A09F009
:104F80009DC08091E800877F8093E8008091700247
:104F900090917102892B21F468E084E592E003C0CE
:104FA00060E080E090E070E00E947F298091E8005E
:104FB0008B778093E800089580916C02813209F02C
:104FC0007DC08091700290917102029708F076C0C6
:104FD0008091E800877F8093E8008091E80082FD5F
:104FE00005C080916B028111F8CF68C08091F200FA
:104FF000823029F48091F1008B7F813021F48091FF
:10500000F10080935C028091E8008B7753C080911F
:105010006C02813A09F052C0809170029091710245
:10502000892B09F04BC08091E800877F8093E800CE
:105030008091E80080FFFCCF8091130136C0809101
:105040006C028132D9F58091700290917102892BA6
:10505000A9F58091E800877F8093E8000E94722A7A
:1050600080916E02809313010C944B1480916C021A
:10507000813221F58091E800877F8093E8000E94CB
:10508000722A80916F0280935D02089580916C0274
:10509000813AA1F48091E800877F8093E8008091B5
:1050A000E80080FFFCCF80915D028093F100809149
:1050B000E8008E778093E8000C94722A089584B7F4
:1050C000877F84BF0FB6F894A895809160008861AF
:1050D00080936000109260000FBE80E880936100B2
:1050E000109261000E941B0F0E94C32A0E94162B7F
:1050F0008091E20084608093E20086E196E20E9463
:10510000C91A78940E94732D0E94210F89E091E0C2
:105110000E94800E85EB9CE00E94980780916B02B4
:10512000853089F481EB9CE00E9498070E94C01BA7
:1051300080916902882391F30E94F21B882371F306
:105140000E941E29EBCF0E94510FE8CF0C94A82893
:10515000292F332723303105C9F064F4213031057C
:1051600081F02230310509F049C08BE590E022E35F
:105170003DE048C02132310521F12232310571F183
:105180003DC082E190E02DE83DE03CC099278130B0
:10519000910571F02CF4892B89F5EEE2FDE00DC04C
:1051A0008230910541F0039749F5E2EDFCE005C03E
:1051B000E0E2FDE002C0E8EDFCE0849190E09F01B8
:1051C00021C063307105D0F4660F771FFB01E95DE4
:1051D000FE4F2081318189E090E014C06330710579
:1051E00068F4FB01EE0FFF1FEF5DFE4F2081318160
:1051F000FB01E25EFE4F808190E004C080E090E021
:1052000020E030E0FA013183208308950895CF93A0
:10521000C82F0E940629C0935E02CF910895809105
:105220006B02843011F081E0089582E0089580914E
:105230005E02811102C00C940F29089584E089BD9B
:1052400086E089BD09B400FEFDCF8091D8008F7D36
:105250008093D8008091E00082608093E00080918C
:10526000E00081FDFCCF0895CF92DF92EF92FF9294
:105270000F931F93CF93DF93EC018B016A010E9480
:10528000912A811133C0C114D10439F0F601808113
:105290009181081B190BC80FD91FE12CF12C0115A6
:1052A000110519F18091E80085FD16C08091E80094
:1052B0008E778093E800C114D10449F0F601808113
:1052C0009181E80EF91EF182E08285E00FC00E9414
:1052D000912A882321F30AC089918093F10001501B
:1052E0001109FFEFEF1AFF0ADACF80E0DF91CF91CB
:1052F0001F910F91FF90EF90DF90CF900895209134
:105300007202309173022617370748F06115710554
:1053100039F42091E8002E772093E80001C0B9010C
:1053200040E06115710591F120916B02222309F48F
:1053300040C0253009F43FC02091E80023FD3DC066
:105340002091E80022FD2FC02091E80020FFE9CF46
:105350002091F20030E0FC01CF016115710559F098
:105360002830310540F481918093F100615071093A
:105370002F5F3F4FF1CF41E02830310509F040E089
:105380002091E8002E772093E800CBCF4111CCCFBD
:105390000AC080916B02882361F0853061F08091B2
:1053A000E80083FD0AC08091E80082FFF2CF80E030
:1053B000089582E0089583E0089581E008952091A2
:1053C0007202309173022617370748F06115710594
:1053D00039F42091E8002E772093E80001C0B9014C
:1053E000FC0120E06115710579F180916B02882341
:1053F00009F43DC0853009F43CC08091E80083FD8C
:105400003AC08091E80082FD2CC08091E80080FFC6
:10541000E9CF8091F20090E06115710559F0883074
:10542000910540F424912093F10031966150710967
:105430000196F2CF21E0089709F020E08091E80082
:105440008E778093E800CECF2111CFCF0AC0809114
:105450006B02882361F0853061F08091E80083FD64
:105460000AC08091E80082FFF2CF80E0089582E0D8
:10547000089583E0089581E00895982F953058F5B8
:105480009093E900981739F07091EC002091ED00AD
:105490005091F00003C0242F762F50E021FF19C057
:1054A0003091EB003E7F3093EB003091ED003D7F7B
:1054B0003093ED003091EB0031603093EB0070934E
:1054C000EC002093ED005093F0002091EE0027FFB8
:1054D00007C09F5FD3CF8F708093E90081E008956C
:1054E00080E0089580916C0287FF11C08091E800F0
:1054F00082FD05C080916B028111F8CF11C08091AF
:10550000E8008B770BC080916B02882349F0809173
:10551000E80080FFF8CF8091E8008E778093E80064
:1055200008952091E4003091E50095E64091EC006B
:10553000842F817040FF22C08091E80080FD1CC054
:1055400080916B02882391F0853091F08091EB007F
:1055500085FD10C04091E4005091E50042175307CB
:1055600029F39A01915011F784E0089582E008959B
:1055700083E0089581E0089580E008954091E80077
:1055800042FFDECF08950E94202B0E94232BE0EEE5
:10559000F0E0808181608083E8EDF0E080818F77AA
:1055A000808319BCE3E6F0E0808181608083109203
:1055B0006A0208950E94202B0E94232B8091D8001C
:1055C0008F778093D8008091D80080688093D8002E
:1055D0008091D8008F7D8093D80084E089BD86E0DB
:1055E00089BD09B400FEFDCF10926B0210926702D4
:1055F000109269021092680242E060E080E00E942E
:105600003D2A8091E1008E7F8093E1008091E2004D
:1056100081608093E2008091E20088608093E200E4
:105620008091E0008E7F8093E0000895E3E6F0E053
:1056300080818E7F808381E080936A020C94DA2AD5
:105640001092E20008951092E10008951F920F92C7
:105650000FB60F9211242F933F934F935F936F9345
:105660007F938F939F93AF93BF93EF93FF9380911B
:10567000E10082FF0BC08091E20082FF07C08091B1
:10568000E1008B7F8093E1000E9456278091E1002A
:1056900080FF19C08091E20080FF15C08091E20078
:1056A0008E7F8093E2008091E20080618093E2002F
:1056B0008091D80080628093D80019BC85E08093E7
:1056C0006B020E944C278091E10084FF30C08091E2
:1056D000E20084FF2CC084E089BD86E089BD09B466
:1056E00000FEFDCF8091D8008F7D8093D8008091FF
:1056F000E1008F7E8093E1008091E2008F7E8093B5
:10570000E2008091E20081608093E2008091670274
:10571000882311F084E007C08091E30087FD02C078
:1057200081E001C083E080936B020E94502780914A
:10573000E10083FF29C08091E20083FF25C08091B2
:10574000E100877F8093E10082E080936B021092FA
:1057500067028091E1008E7F8093E1008091E200FA
:105760008E7F8093E2008091E20080618093E2006E
:1057700042E060E080E00E943D2A8091F000886075
:105780008093F0000E944827FF91EF91BF91AF9165
:105790009F918F917F916F915F914F913F912F9149
:1057A0000F900FBE0F901F9018951F920F920FB67B
:1057B0000F9211242F933F934F935F936F937F9397
:1057C0008F939F93AF93BF93CF93DF93EF93FF9309
:1057D000C091E900CF708091EC00D82FD17080FD8E
:1057E000D0E81092E9008091F000877F8093F0006C
:1057F00078940E94192C1092E9008091F000886042
:105800008093F000CD2BCF70C093E900FF91EF9112
:10581000DF91CF91BF91AF919F918F917F916F91C8
:105820005F914F913F912F910F900FBE0F901F905E
:1058300018951F93CF93DF93CDB7DEB7AA970FB616
:10584000F894DEBF0FBECDBFECE6F2E088E08E0F2D
:105850009091F10091938E13FBCF0E94A627809127
:10586000E80083FF28C180916C0290916D02492F5E
:1058700050E04A30510508F01EC1FA01E057FF4FD1
:105880000C94C82D803821F0823809F014C108C06A
:105890008091680290916902992389F082600FC01B
:1058A000809170028F70853008F005C18093E90007
:1058B0008091EB0085FB882780F91092E900909198
:1058C000E800977F9093E8008093F1001092F10038
:1058D000D0C0282F2D7F09F0EEC0882319F0823028
:1058E00061F0E9C080916E02813009F0E4C093302C
:1058F00009F080E0809369022EC080916E028111D0
:105900002AC0809170028F702FEF280F243008F08A
:10591000D2C08093E9002091EB0020FF1CC093309F
:1059200021F48091EB00806214C09091EB009061B3
:105930009093EB0021E030E0A90102C0440F551F15
:105940008A95E2F74093EA001092EA008091EB001A
:1059500088608093EB001092E9008091E800877FD7
:105960008093E8000E94722AA6C08111A4C0109101
:105970006E021F778091E3008078812B8093E30093
:105980008091E800877F8093E8000E94722A8091CE
:10599000E80080FFFCCF8091E30080688093E30003
:1059A000111102C082E001C083E080936B0283C0CA
:1059B0008058823008F07FC080916E0290916F0213
:1059C0008C3D53E0950779F583E08A838AE28983E9
:1059D0004FB7F894DE01139620E03EE051E2E32F4A
:1059E000F0E050935700E49120FF03C0E295EF7080
:1059F0003F5FEF708E2F90E0EA3010F0C79601C045
:105A0000C0968D939D932F5F243149F74FBF8091AE
:105A1000E800877F8093E8006AE270E0CE0101969B
:105A20000E947F2915C06091700270917102AE01D1
:105A30004F5F5F4F0E94A628BC01892BE1F1909136
:105A4000E800977F9093E80089819A810E94DF297E
:105A50008091E8008B778093E8002DC0803859F55D
:105A60008091E800877F8093E800809167028093AF
:105A7000F1008091E8008E7773CF81111CC0909166
:105A80006E029230C0F48091E800877F8093E80036
:105A9000909367020E94722A80916702811106C06A
:105AA0008091E30087FD02C081E001C084E0809323
:105AB0006B020E9497278091E80083FF0AC08091C3
:105AC000E800877F8093E8008091EB0080628093FC
:105AD000EB00AA960FB6F894DEBF0FBECDBFDF91E4
